{
  "contractName": "FlipContract",
  "abi": [
    {
      "inputs": [],
      "payable": false,
      "stateMutability": "nonpayable",
      "type": "constructor"
    },
    {
      "anonymous": false,
      "inputs": [
        {
          "indexed": false,
          "internalType": "string",
          "name": "description",
          "type": "string"
        }
      ],
      "name": "LogNewProvableQuery",
      "type": "event"
    },
    {
      "anonymous": false,
      "inputs": [
        {
          "indexed": false,
          "internalType": "address",
          "name": "player",
          "type": "address"
        },
        {
          "indexed": false,
          "internalType": "uint256",
          "name": "value",
          "type": "uint256"
        },
        {
          "indexed": false,
          "internalType": "bool",
          "name": "result",
          "type": "bool"
        }
      ],
      "name": "betTaken",
      "type": "event"
    },
    {
      "anonymous": false,
      "inputs": [
        {
          "indexed": false,
          "internalType": "address",
          "name": "contractOwner",
          "type": "address"
        },
        {
          "indexed": false,
          "internalType": "uint256",
          "name": "funding",
          "type": "uint256"
        }
      ],
      "name": "funded",
      "type": "event"
    },
    {
      "anonymous": false,
      "inputs": [
        {
          "indexed": false,
          "internalType": "uint256",
          "name": "randomNumber",
          "type": "uint256"
        }
      ],
      "name": "generatedRandomNumber",
      "type": "event"
    },
    {
      "constant": true,
      "inputs": [
        {
          "internalType": "bytes32",
          "name": "",
          "type": "bytes32"
        }
      ],
      "name": "betting",
      "outputs": [
        {
          "internalType": "address payable",
          "name": "player",
          "type": "address"
        },
        {
          "internalType": "uint256",
          "name": "value",
          "type": "uint256"
        },
        {
          "internalType": "bool",
          "name": "result",
          "type": "bool"
        }
      ],
      "payable": false,
      "stateMutability": "view",
      "type": "function"
    },
    {
      "constant": true,
      "inputs": [],
      "name": "contractOwner",
      "outputs": [
        {
          "internalType": "address",
          "name": "",
          "type": "address"
        }
      ],
      "payable": false,
      "stateMutability": "view",
      "type": "function"
    },
    {
      "constant": false,
      "inputs": [
        {
          "internalType": "address",
          "name": "newOwner",
          "type": "address"
        }
      ],
      "name": "transferOwnership",
      "outputs": [],
      "payable": false,
      "stateMutability": "nonpayable",
      "type": "function"
    },
    {
      "constant": true,
      "inputs": [
        {
          "internalType": "address",
          "name": "",
          "type": "address"
        }
      ],
      "name": "waiting",
      "outputs": [
        {
          "internalType": "bool",
          "name": "",
          "type": "bool"
        }
      ],
      "payable": false,
      "stateMutability": "view",
      "type": "function"
    },
    {
      "constant": false,
      "inputs": [
        {
          "internalType": "bytes32",
          "name": "_myid",
          "type": "bytes32"
        },
        {
          "internalType": "string",
          "name": "_result",
          "type": "string"
        }
      ],
      "name": "__callback",
      "outputs": [],
      "payable": false,
      "stateMutability": "nonpayable",
      "type": "function"
    },
    {
      "constant": false,
      "inputs": [
        {
          "internalType": "bytes32",
          "name": "_queryId",
          "type": "bytes32"
        },
        {
          "internalType": "string",
          "name": "_result",
          "type": "string"
        },
        {
          "internalType": "bytes",
          "name": "_proof",
          "type": "bytes"
        }
      ],
      "name": "__callback",
      "outputs": [],
      "payable": false,
      "stateMutability": "nonpayable",
      "type": "function"
    },
    {
      "constant": false,
      "inputs": [],
      "name": "flip",
      "outputs": [],
      "payable": true,
      "stateMutability": "payable",
      "type": "function"
    },
    {
      "constant": false,
      "inputs": [],
      "name": "withdrawAll",
      "outputs": [
        {
          "internalType": "uint256",
          "name": "",
          "type": "uint256"
        }
      ],
      "payable": false,
      "stateMutability": "nonpayable",
      "type": "function"
    },
    {
      "constant": true,
      "inputs": [],
      "name": "getBalance",
      "outputs": [
        {
          "internalType": "address",
          "name": "",
          "type": "address"
        },
        {
          "internalType": "uint256",
          "name": "",
          "type": "uint256"
        }
      ],
      "payable": false,
      "stateMutability": "view",
      "type": "function"
    },
    {
      "constant": false,
      "inputs": [],
      "name": "fundContract",
      "outputs": [
        {
          "internalType": "uint256",
          "name": "",
          "type": "uint256"
        }
      ],
      "payable": true,
      "stateMutability": "payable",
      "type": "function"
    }
  ],
  "bytecode": "0x60806040523480156200001157600080fd5b50336000806101000a81548173ffffffffffffffffffffffffffffffffffffffff021916908373ffffffffffffffffffffffffffffffffffffffff16021790555062000067603060f81b6200007d60201b60201c565b62000077620003e360201b60201c565b62002484565b600073ffffffffffffffffffffffffffffffffffffffff16600260009054906101000a900473ffffffffffffffffffffffffffffffffffffffff1673ffffffffffffffffffffffffffffffffffffffff1614806200010d575060006200010b600260009054906101000a900473ffffffffffffffffffffffffffffffffffffffff16620005cd60201b60201c565b145b156200012757620001256000620005d860201b60201c565b505b600260009054906101000a900473ffffffffffffffffffffffffffffffffffffffff1673ffffffffffffffffffffffffffffffffffffffff166338cc48316040518163ffffffff1660e01b8152600401602060405180830381600087803b1580156200019257600080fd5b505af1158015620001a7573d6000803e3d6000fd5b505050506040513d6020811015620001be57600080fd5b810190808051906020019092919050505073ffffffffffffffffffffffffffffffffffffffff16600160009054906101000a900473ffffffffffffffffffffffffffffffffffffffff1673ffffffffffffffffffffffffffffffffffffffff16146200030d57600260009054906101000a900473ffffffffffffffffffffffffffffffffffffffff1673ffffffffffffffffffffffffffffffffffffffff166338cc48316040518163ffffffff1660e01b8152600401602060405180830381600087803b1580156200028f57600080fd5b505af1158015620002a4573d6000803e3d6000fd5b505050506040513d6020811015620002bb57600080fd5b8101908080519060200190929190505050600160006101000a81548173ffffffffffffffffffffffffffffffffffffffff021916908373ffffffffffffffffffffffffffffffffffffffff1602179055505b600160009054906101000a900473ffffffffffffffffffffffffffffffffffffffff1673ffffffffffffffffffffffffffffffffffffffff1663688dcfd7826040518263ffffffff1660e01b815260040180827effffffffffffffffffffffffffffffffffffffffffffffffffffffffffffff19167effffffffffffffffffffffffffffffffffffffffffffffffffffffffffffff19168152602001915050600060405180830381600087803b158015620003c757600080fd5b505af1158015620003dc573d6000803e3d6000fd5b5050505050565b60001515600860003373ffffffffffffffffffffffffffffffffffffffff1673ffffffffffffffffffffffffffffffffffffffff16815260200190815260200160002060009054906101000a900460ff161515146200044157600080fd5b6001600860003373ffffffffffffffffffffffffffffffffffffffff1673ffffffffffffffffffffffffffffffffffffffff16815260200190815260200160002060006101000a81548160ff0219169083151502179055506000809050600062030d409050620004ba82600183620005f160201b60201c565b60068190555060405180606001604052803373ffffffffffffffffffffffffffffffffffffffff1681526020013481526020016000151581525060076000600654815260200190815260200160002060008201518160000160006101000a81548173ffffffffffffffffffffffffffffffffffffffff021916908373ffffffffffffffffffffffffffffffffffffffff1602179055506020820151816001015560408201518160020160006101000a81548160ff0219169083151502179055509050507fc4dc360d0a9c0677a3379ae0a3d81e887f761e65fdf3d7e00859d1bcd3c47389604051808060200182810382526032815260200180620063706032913960400191505060405180910390a15050565b6000813b9050919050565b6000620005ea62000bc460201b60201c565b9050919050565b6000808311801562000604575060208311155b6200060e57600080fd5b600a84029350606060016040519080825280601f01601f1916602001820160405280156200064b5781602001600182028038833980820191505090505b5090508360f81b816000815181106200066057fe5b60200101907effffffffffffffffffffffffffffffffffffffffffffffffffffffffffffff1916908160001a905350606060206040519080825280601f01601f191660200182016040528015620006c65781602001600182028038833980820191505090505b509050606060206040519080825280601f01601f191660200182016040528015620007005781602001600182028038833980820191505090505b5090506000620007156200119360201b60201c565b905060208352424118600143034018602084015260208252806020830152606060206040519080825280601f01601f1916602001820160405280156200076a5781602001600182028038833980820191505090505b509050886020820152606060086040519080825280601f01601f191660200182016040528015620007aa5781602001600182028038833980820191505090505b509050620007c58260186008846000620014cf60201b60201c565b50620007d062002393565b604051806080016040528087815260200188815260200186815260200184815250905060006200083d6040518060400160405280600681526020017f72616e646f6d0000000000000000000000000000000000000000000000000000815250838c6200153160201b60201c565b9050606060086040519080825280601f01601f191660200182016040528015620008765781602001600182028038833980820191505090505b50905060208401517f0100000000000000000000000000000000000000000000000000000000000000810460278301537e01000000000000000000000000000000000000000000000000000000000000810460268301537d010000000000000000000000000000000000000000000000000000000000810460258301537c0100000000000000000000000000000000000000000000000000000000810460248301537b01000000000000000000000000000000000000000000000000000000810460238301537a01000000000000000000000000000000000000000000000000000081046022830153790100000000000000000000000000000000000000000000000000810460218301537801000000000000000000000000000000000000000000000000810460208301535062000bb1828285600160048110620009b757fe5b6020020151600287600060048110620009cc57fe5b60200201516040518082805190602001908083835b6020831062000a065780518252602082019150602081019050602083039250620009e1565b6001836020036101000a038019825116818451168082178552505050505050905001915050602060405180830381855afa15801562000a49573d6000803e3d6000fd5b5050506040513d602081101562000a5f57600080fd5b81019080805190602001909291905050508760026004811062000a7e57fe5b60200201516040516020018085805190602001908083835b6020831062000abb578051825260208201915060208101905060208303925062000a96565b6001836020036101000a03801982511681845116808217855250505050505090500184805190602001908083835b6020831062000b0e578051825260208201915060208101905060208303925062000ae9565b6001836020036101000a03801982511681845116808217855250505050505090500183815260200182805190602001908083835b6020831062000b67578051825260208201915060208101905060208303925062000b42565b6001836020036101000a03801982511681845116808217855250505050505090500194505050505060405160208183030381529060405280519060200120620018cb60201b60201c565b8199505050505050505050509392505050565b60008062000bec731d3b2638a7cc9f2cb3d298a3da7a90b67e5506ed620005cd60201b60201c565b111562000c9857731d3b2638a7cc9f2cb3d298a3da7a90b67e5506ed600260006101000a81548173ffffffffffffffffffffffffffffffffffffffff021916908373ffffffffffffffffffffffffffffffffffffffff16021790555062000c8e6040518060400160405280600b81526020017f6574685f6d61696e6e6574000000000000000000000000000000000000000000815250620018e760201b60201c565b6001905062001190565b600062000cbf73c03a2615d5efaf5f49f60b7bb6583eaec212fdf1620005cd60201b60201c565b111562000d6b5773c03a2615d5efaf5f49f60b7bb6583eaec212fdf1600260006101000a81548173ffffffffffffffffffffffffffffffffffffffff021916908373ffffffffffffffffffffffffffffffffffffffff16021790555062000d616040518060400160405280600c81526020017f6574685f726f707374656e330000000000000000000000000000000000000000815250620018e760201b60201c565b6001905062001190565b600062000d9273b7a07bcf2ba2f2703b24c0691b5278999c59ac7e620005cd60201b60201c565b111562000e3e5773b7a07bcf2ba2f2703b24c0691b5278999c59ac7e600260006101000a81548173ffffffffffffffffffffffffffffffffffffffff021916908373ffffffffffffffffffffffffffffffffffffffff16021790555062000e346040518060400160405280600981526020017f6574685f6b6f76616e0000000000000000000000000000000000000000000000815250620018e760201b60201c565b6001905062001190565b600062000e6573146500cfd35b22e4a392fe0adc06de1a1368ed48620005cd60201b60201c565b111562000f115773146500cfd35b22e4a392fe0adc06de1a1368ed48600260006101000a81548173ffffffffffffffffffffffffffffffffffffffff021916908373ffffffffffffffffffffffffffffffffffffffff16021790555062000f076040518060400160405280600b81526020017f6574685f72696e6b656279000000000000000000000000000000000000000000815250620018e760201b60201c565b6001905062001190565b600062000f3873a2998efd205fb9d4b4963afb70778d6354ad3a41620005cd60201b60201c565b111562000fe45773a2998efd205fb9d4b4963afb70778d6354ad3a41600260006101000a81548173ffffffffffffffffffffffffffffffffffffffff021916908373ffffffffffffffffffffffffffffffffffffffff16021790555062000fda6040518060400160405280600a81526020017f6574685f676f65726c6900000000000000000000000000000000000000000000815250620018e760201b60201c565b6001905062001190565b60006200100b736f485c8bf6fc43ea212e93bbf8ce046c7f1cb475620005cd60201b60201c565b11156200107157736f485c8bf6fc43ea212e93bbf8ce046c7f1cb475600260006101000a81548173ffffffffffffffffffffffffffffffffffffffff021916908373ffffffffffffffffffffffffffffffffffffffff1602179055506001905062001190565b6000620010987320e12a1f859b3feae5fb2a0a32c18f5a65555bbf620005cd60201b60201c565b1115620010fe577320e12a1f859b3feae5fb2a0a32c18f5a65555bbf600260006101000a81548173ffffffffffffffffffffffffffffffffffffffff021916908373ffffffffffffffffffffffffffffffffffffffff1602179055506001905062001190565b6000620011257351efaf4c8b3c9afbd5ab9f4bbc82784ab6ef8faa620005cd60201b60201c565b11156200118b577351efaf4c8b3c9afbd5ab9f4bbc82784ab6ef8faa600260006101000a81548173ffffffffffffffffffffffffffffffffffffffff021916908373ffffffffffffffffffffffffffffffffffffffff1602179055506001905062001190565b600090505b90565b60008073ffffffffffffffffffffffffffffffffffffffff16600260009054906101000a900473ffffffffffffffffffffffffffffffffffffffff1673ffffffffffffffffffffffffffffffffffffffff161480620012245750600062001222600260009054906101000a900473ffffffffffffffffffffffffffffffffffffffff16620005cd60201b60201c565b145b156200123e576200123c6000620005d860201b60201c565b505b600260009054906101000a900473ffffffffffffffffffffffffffffffffffffffff1673ffffffffffffffffffffffffffffffffffffffff166338cc48316040518163ffffffff1660e01b8152600401602060405180830381600087803b158015620012a957600080fd5b505af1158015620012be573d6000803e3d6000fd5b505050506040513d6020811015620012d557600080fd5b810190808051906020019092919050505073ffffffffffffffffffffffffffffffffffffffff16600160009054906101000a900473ffffffffffffffffffffffffffffffffffffffff1673ffffffffffffffffffffffffffffffffffffffff16146200142457600260009054906101000a900473ffffffffffffffffffffffffffffffffffffffff1673ffffffffffffffffffffffffffffffffffffffff166338cc48316040518163ffffffff1660e01b8152600401602060405180830381600087803b158015620013a657600080fd5b505af1158015620013bb573d6000803e3d6000fd5b505050506040513d6020811015620013d257600080fd5b8101908080519060200190929190505050600160006101000a81548173ffffffffffffffffffffffffffffffffffffffff021916908373ffffffffffffffffffffffffffffffffffffffff1602179055505b600160009054906101000a900473ffffffffffffffffffffffffffffffffffffffff1673ffffffffffffffffffffffffffffffffffffffff1663abaa5f3e6040518163ffffffff1660e01b815260040160206040518083038186803b1580156200148d57600080fd5b505afa158015620014a2573d6000803e3d6000fd5b505050506040513d6020811015620014b957600080fd5b8101908080519060200190929190505050905090565b6060600082850190508084511015620014e757600080fd5b600086602001905060008460200190505b868860200101821015620015225781890151808288015250602082019150602081019050620014f8565b85935050505095945050505050565b60008073ffffffffffffffffffffffffffffffffffffffff16600260009054906101000a900473ffffffffffffffffffffffffffffffffffffffff1673ffffffffffffffffffffffffffffffffffffffff161480620015c257506000620015c0600260009054906101000a900473ffffffffffffffffffffffffffffffffffffffff16620005cd60201b60201c565b145b15620015dc57620015da6000620005d860201b60201c565b505b600260009054906101000a900473ffffffffffffffffffffffffffffffffffffffff1673ffffffffffffffffffffffffffffffffffffffff166338cc48316040518163ffffffff1660e01b8152600401602060405180830381600087803b1580156200164757600080fd5b505af11580156200165c573d6000803e3d6000fd5b505050506040513d60208110156200167357600080fd5b810190808051906020019092919050505073ffffffffffffffffffffffffffffffffffffffff16600160009054906101000a900473ffffffffffffffffffffffffffffffffffffffff1673ffffffffffffffffffffffffffffffffffffffff1614620017c257600260009054906101000a900473ffffffffffffffffffffffffffffffffffffffff1673ffffffffffffffffffffffffffffffffffffffff166338cc48316040518163ffffffff1660e01b8152600401602060405180830381600087803b1580156200174457600080fd5b505af115801562001759573d6000803e3d6000fd5b505050506040513d60208110156200177057600080fd5b8101908080519060200190929190505050600160006101000a81548173ffffffffffffffffffffffffffffffffffffffff021916908373ffffffffffffffffffffffffffffffffffffffff1602179055505b60606004604051908082528060200260200182016040528015620017fb57816020015b6060815260200190600190039081620017e55790505b509050836000600481106200180c57fe5b6020020151816000815181106200181f57fe5b6020026020010181905250836001600481106200183857fe5b6020020151816001815181106200184b57fe5b6020026020010181905250836002600481106200186457fe5b6020020151816002815181106200187757fe5b6020026020010181905250836003600481106200189057fe5b602002015181600381518110620018a357fe5b6020026020010181905250620018c18582856200190360201b60201c565b9150509392505050565b8060046000848152602001908152602001600020819055505050565b8060039080519060200190620018ff929190620023bb565b5050565b60008073ffffffffffffffffffffffffffffffffffffffff16600260009054906101000a900473ffffffffffffffffffffffffffffffffffffffff1673ffffffffffffffffffffffffffffffffffffffff161480620019945750600062001992600260009054906101000a900473ffffffffffffffffffffffffffffffffffffffff16620005cd60201b60201c565b145b15620019ae57620019ac6000620005d860201b60201c565b505b600260009054906101000a900473ffffffffffffffffffffffffffffffffffffffff1673ffffffffffffffffffffffffffffffffffffffff166338cc48316040518163ffffffff1660e01b8152600401602060405180830381600087803b15801562001a1957600080fd5b505af115801562001a2e573d6000803e3d6000fd5b505050506040513d602081101562001a4557600080fd5b810190808051906020019092919050505073ffffffffffffffffffffffffffffffffffffffff16600160009054906101000a900473ffffffffffffffffffffffffffffffffffffffff1673ffffffffffffffffffffffffffffffffffffffff161462001b9457600260009054906101000a900473ffffffffffffffffffffffffffffffffffffffff1673ffffffffffffffffffffffffffffffffffffffff166338cc48316040518163ffffffff1660e01b8152600401602060405180830381600087803b15801562001b1657600080fd5b505af115801562001b2b573d6000803e3d6000fd5b505050506040513d602081101562001b4257600080fd5b8101908080519060200190929190505050600160006101000a81548173ffffffffffffffffffffffffffffffffffffffff021916908373ffffffffffffffffffffffffffffffffffffffff1602179055505b6000600160009054906101000a900473ffffffffffffffffffffffffffffffffffffffff1673ffffffffffffffffffffffffffffffffffffffff16632ef3accc86856040518363ffffffff1660e01b81526004018080602001838152602001828103825284818151815260200191508051906020019080838360005b8381101562001c2d57808201518184015260208101905062001c10565b50505050905090810190601f16801562001c5b5780820380516001836020036101000a031916815260200191505b509350505050602060405180830381600087803b15801562001c7c57600080fd5b505af115801562001c91573d6000803e3d6000fd5b505050506040513d602081101562001ca857600080fd5b81019080805190602001909291905050509050823a02670de0b6b3a76400000181111562001cdd576000801b91505062001e94565b606062001cf08562001e9b60201b60201c565b9050600160009054906101000a900473ffffffffffffffffffffffffffffffffffffffff1673ffffffffffffffffffffffffffffffffffffffff1663c55c1cb68360008985896040518663ffffffff1660e01b8152600401808581526020018060200180602001848152602001838103835286818151815260200191508051906020019080838360005b8381101562001d9757808201518184015260208101905062001d7a565b50505050905090810190601f16801562001dc55780820380516001836020036101000a031916815260200191505b50838103825285818151815260200191508051906020019080838360005b8381101562001e0057808201518184015260208101905062001de3565b50505050905090810190601f16801562001e2e5780820380516001836020036101000a031916815260200191505b5096505050505050506020604051808303818588803b15801562001e5157600080fd5b505af115801562001e66573d6000803e3d6000fd5b50505050506040513d602081101562001e7e57600080fd5b8101908080519060200190929190505050925050505b9392505050565b606062001ead62001f5660201b60201c565b62001eb762002442565b62001ed08161040062001f6260201b620039a41760201c565b62001ee68162001faf60201b620039ee1760201c565b60008090505b835181101562001f325762001f2484828151811062001f0757fe5b60200260200101518362001fc560201b620039fc1790919060201c565b808060010191505062001eec565b5062001f498162001ff960201b62003a211760201c565b8060000151915050919050565b60405180590338823950565b600081905060006020828162001f7457fe5b061462001f8f576020818162001f8657fe5b06602003810190505b808360200181815250506040518084526000815281810160405250505050565b62001fc28160046200200f60201b60201c565b50565b62001fda82600283516200203760201b60201c565b62001ff48183620021bf60201b62003b901790919060201c565b505050565b6200200c8160076200200f60201b60201c565b50565b62002033601f60058360ff16901b17836200227f60201b62003c3b1790919060201c565b5050565b601781116200206c57620020668160058460ff16901b60ff1617846200227f60201b62003c3b1790919060201c565b620021ba565b60ff8111620020bd5762002099601860058460ff16901b17846200227f60201b62003c3b1790919060201c565b620020b681600185620022c860201b62003c7b179092919060201c565b50620021b9565b61ffff81116200210f57620020eb601960058460ff16901b17846200227f60201b62003c3b1790919060201c565b6200210881600285620022c860201b62003c7b179092919060201c565b50620021b8565b63ffffffff811162002163576200213f601a60058460ff16901b17846200227f60201b62003c3b1790919060201c565b6200215c81600485620022c860201b62003c7b179092919060201c565b50620021b7565b67ffffffffffffffff8111620021b65762002197601b60058460ff16901b17846200227f60201b62003c3b1790919060201c565b620021b481600885620022c860201b62003c7b179092919060201c565b505b5b5b5b5b505050565b620021c962002442565b826020015183600001515183510111156200220a5762002209836002620021fc866020015186516200234260201b60201c565b026200236060201b60201c565b5b60008060008451905085518051602081830101945086518101825260208701935050505b602081106200225357815183526020830192506020820191506020810390506200222e565b60006001826020036101000a039050801983511681855116818117865250508694505050505092915050565b81602001516001836000015151011115620022ae57620022ad8260028460200151026200236060201b60201c565b5b815180516020818301018381536001820183525050505050565b620022d262002442565b836020015184600001515183011115620023115762002310846002620023038760200151866200234260201b60201c565b026200236060201b60201c565b5b60006001836101000a0390508451805184818301018684198251161781528582018352505050849150509392505050565b60008183111562002356578290506200235a565b8190505b92915050565b6060826000015190506200237b838362001f6260201b60201c565b6200238d8382620021bf60201b60201c565b50505050565b60405180608001604052806004905b6060815260200190600190039081620023a25790505090565b828054600181600116156101000203166002900490600052602060002090601f016020900481019282601f10620023fe57805160ff19168380011785556200242f565b828001600101855582156200242f579182015b828111156200242e57825182559160200191906001019062002411565b5b5090506200243e91906200245c565b5090565b604051806040016040528060608152602001600081525090565b6200248191905b808211156200247d57600081600090555060010162002463565b5090565b90565b613edc80620024946000396000f3fe6080604052600436106100915760003560e01c8063bd097e2111610059578063bd097e21146103e7578063cde4efa914610405578063ce606ee01461040f578063e437786d14610466578063f2fde38b146104cf57610091565b806312065fe01461009657806327dc297e146100f4578063303b2f4b146101c657806338bbfa5014610253578063853828b6146103bc575b600080fd5b3480156100a257600080fd5b506100ab610520565b604051808373ffffffffffffffffffffffffffffffffffffffff1673ffffffffffffffffffffffffffffffffffffffff1681526020018281526020019250505060405180910390f35b34801561010057600080fd5b506101c46004803603604081101561011757600080fd5b81019080803590602001909291908035906020019064010000000081111561013e57600080fd5b82018360208201111561015057600080fd5b8035906020019184600183028401116401000000008311171561017257600080fd5b91908080601f016020809104026020016040519081016040528093929190818152602001838380828437600081840152601f19601f820116905080830192505050505050509192919290505050610544565b005b3480156101d257600080fd5b506101ff600480360360208110156101e957600080fd5b8101908080359060200190929190505050610587565b604051808473ffffffffffffffffffffffffffffffffffffffff1673ffffffffffffffffffffffffffffffffffffffff16815260200183815260200182151515158152602001935050505060405180910390f35b34801561025f57600080fd5b506103ba6004803603606081101561027657600080fd5b81019080803590602001909291908035906020019064010000000081111561029d57600080fd5b8201836020820111156102af57600080fd5b803590602001918460018302840111640100000000831117156102d157600080fd5b91908080601f016020809104026020016040519081016040528093929190818152602001838380828437600081840152601f19601f8201169050808301925050505050505091929192908035906020019064010000000081111561033457600080fd5b82018360208201111561034657600080fd5b8035906020019184600183028401116401000000008311171561036857600080fd5b91908080601f016020809104026020016040519081016040528093929190818152602001838380828437600081840152601f19601f8201169050808301925050505050505091929192905050506105de565b005b3480156103c857600080fd5b506103d1610969565b6040518082815260200191505060405180910390f35b6103ef610aac565b6040518082815260200191505060405180910390f35b61040d610bd2565b005b34801561041b57600080fd5b50610424610db2565b604051808273ffffffffffffffffffffffffffffffffffffffff1673ffffffffffffffffffffffffffffffffffffffff16815260200191505060405180910390f35b34801561047257600080fd5b506104b56004803603602081101561048957600080fd5b81019080803573ffffffffffffffffffffffffffffffffffffffff169060200190929190505050610dd7565b604051808215151515815260200191505060405180910390f35b3480156104db57600080fd5b5061051e600480360360208110156104f257600080fd5b81019080803573ffffffffffffffffffffffffffffffffffffffff169060200190929190505050610df7565b005b600080303073ffffffffffffffffffffffffffffffffffffffff1631915091509091565b610583828260006040519080825280601f01601f19166020018201604052801561057d5781602001600182028038833980820191505090505b506105de565b5050565b60076020528060005260406000206000915090508060000160009054906101000a900473ffffffffffffffffffffffffffffffffffffffff16908060010154908060020160009054906101000a900460ff16905083565b6105e6610f19565b73ffffffffffffffffffffffffffffffffffffffff163373ffffffffffffffffffffffffffffffffffffffff161461061d57600080fd5b600061062a848484611239565b60ff161461063757610964565b60006002836040516020018082805190602001908083835b60208310610672578051825260208201915060208101905060208303925061064f565b6001836020036101000a0380198251168184511680821785525050505050509050019150506040516020818303038152906040528051906020012060001c816106b757fe5b06905060008114156106ef57600015156007600086815260200190815260200160002060020160009054906101000a905050506107b7565b60018114156107b657600115156007600086815260200190815260200160002060020160009054906101000a905050506007600085815260200190815260200160002060000160009054906101000a900473ffffffffffffffffffffffffffffffffffffffff1673ffffffffffffffffffffffffffffffffffffffff166108fc60026007600088815260200190815260200160002060010154029081150290604051600060405180830381858888f193505050501580156107b4573d6000803e3d6000fd5b505b5b6000600860006007600088815260200190815260200160002060000160009054906101000a900473ffffffffffffffffffffffffffffffffffffffff1673ffffffffffffffffffffffffffffffffffffffff1673ffffffffffffffffffffffffffffffffffffffff16815260200190815260200160002060006101000a81548160ff0219169083151502179055507fbc875a71d5f6713b0f6a033594a2f5e64c92f5d028465717d8ec11df609dc21b6007600086815260200190815260200160002060000160009054906101000a900473ffffffffffffffffffffffffffffffffffffffff1660076000878152602001908152602001600020600101546007600088815260200190815260200160002060020160009054906101000a900460ff16604051808473ffffffffffffffffffffffffffffffffffffffff1673ffffffffffffffffffffffffffffffffffffffff16815260200183815260200182151515158152602001935050505060405180910390a17fc13d60fe9dffdb6908d2d446cd18134373a51db0738ee04f296eeb9128121cbc816040518082815260200191505060405180910390a1505b505050565b60008060009054906101000a900473ffffffffffffffffffffffffffffffffffffffff1673ffffffffffffffffffffffffffffffffffffffff163373ffffffffffffffffffffffffffffffffffffffff1614610a10576040517f08c379a000000000000000000000000000000000000000000000000000000000815260040180806020018281038252602e815260200180613e08602e913960400191505060405180910390fd5b3373ffffffffffffffffffffffffffffffffffffffff166108fc3073ffffffffffffffffffffffffffffffffffffffff16319081150290604051600060405180830381858888f19350505050158015610a6d573d6000803e3d6000fd5b5060003073ffffffffffffffffffffffffffffffffffffffff163114610a8f57fe5b3073ffffffffffffffffffffffffffffffffffffffff1631905090565b60008060009054906101000a900473ffffffffffffffffffffffffffffffffffffffff1673ffffffffffffffffffffffffffffffffffffffff163373ffffffffffffffffffffffffffffffffffffffff1614610b53576040517f08c379a000000000000000000000000000000000000000000000000000000000815260040180806020018281038252602e815260200180613e08602e913960400191505060405180910390fd5b6000341415610b6157600080fd5b7fed7d0ddcc17abdb3935a0a23cd93e91b449dfeac7fd0def9f481ed5b37e18c4d3334604051808373ffffffffffffffffffffffffffffffffffffffff1673ffffffffffffffffffffffffffffffffffffffff1681526020018281526020019250505060405180910390a134905090565b60001515600860003373ffffffffffffffffffffffffffffffffffffffff1673ffffffffffffffffffffffffffffffffffffffff16815260200190815260200160002060009054906101000a900460ff16151514610c2f57600080fd5b6001600860003373ffffffffffffffffffffffffffffffffffffffff1673ffffffffffffffffffffffffffffffffffffffff16815260200190815260200160002060006101000a81548160ff0219169083151502179055506000809050600062030d409050610ca082600183611369565b60068190555060405180606001604052803373ffffffffffffffffffffffffffffffffffffffff1681526020013481526020016000151581525060076000600654815260200190815260200160002060008201518160000160006101000a81548173ffffffffffffffffffffffffffffffffffffffff021916908373ffffffffffffffffffffffffffffffffffffffff1602179055506020820151816001015560408201518160020160006101000a81548160ff0219169083151502179055509050507fc4dc360d0a9c0677a3379ae0a3d81e887f761e65fdf3d7e00859d1bcd3c47389604051808060200182810382526032815260200180613e366032913960400191505060405180910390a15050565b6000809054906101000a900473ffffffffffffffffffffffffffffffffffffffff1681565b60086020528060005260406000206000915054906101000a900460ff1681565b6000809054906101000a900473ffffffffffffffffffffffffffffffffffffffff1673ffffffffffffffffffffffffffffffffffffffff163373ffffffffffffffffffffffffffffffffffffffff1614610e9c576040517f08c379a000000000000000000000000000000000000000000000000000000000815260040180806020018281038252602e815260200180613e08602e913960400191505060405180910390fd5b600073ffffffffffffffffffffffffffffffffffffffff168173ffffffffffffffffffffffffffffffffffffffff161415610ed657600080fd5b806000806101000a81548173ffffffffffffffffffffffffffffffffffffffff021916908373ffffffffffffffffffffffffffffffffffffffff16021790555050565b60008073ffffffffffffffffffffffffffffffffffffffff16600260009054906101000a900473ffffffffffffffffffffffffffffffffffffffff1673ffffffffffffffffffffffffffffffffffffffff161480610fa157506000610f9f600260009054906101000a900473ffffffffffffffffffffffffffffffffffffffff16611904565b145b15610fb257610fb0600061190f565b505b600260009054906101000a900473ffffffffffffffffffffffffffffffffffffffff1673ffffffffffffffffffffffffffffffffffffffff166338cc48316040518163ffffffff1660e01b8152600401602060405180830381600087803b15801561101c57600080fd5b505af1158015611030573d6000803e3d6000fd5b505050506040513d602081101561104657600080fd5b810190808051906020019092919050505073ffffffffffffffffffffffffffffffffffffffff16600160009054906101000a900473ffffffffffffffffffffffffffffffffffffffff1673ffffffffffffffffffffffffffffffffffffffff161461119157600260009054906101000a900473ffffffffffffffffffffffffffffffffffffffff1673ffffffffffffffffffffffffffffffffffffffff166338cc48316040518163ffffffff1660e01b8152600401602060405180830381600087803b15801561111557600080fd5b505af1158015611129573d6000803e3d6000fd5b505050506040513d602081101561113f57600080fd5b8101908080519060200190929190505050600160006101000a81548173ffffffffffffffffffffffffffffffffffffffff021916908373ffffffffffffffffffffffffffffffffffffffff1602179055505b600160009054906101000a900473ffffffffffffffffffffffffffffffffffffffff1673ffffffffffffffffffffffffffffffffffffffff1663c281d19e6040518163ffffffff1660e01b815260040160206040518083038186803b1580156111f957600080fd5b505afa15801561120d573d6000803e3d6000fd5b505050506040513d602081101561122357600080fd5b8101908080519060200190929190505050905090565b60007f4c000000000000000000000000000000000000000000000000000000000000008260008151811061126957fe5b602001015160f81c60f81b7effffffffffffffffffffffffffffffffffffffffffffffffffffffffffffff19161415806112fc57507f5000000000000000000000000000000000000000000000000000000000000000826001815181106112cc57fe5b602001015160f81c60f81b7effffffffffffffffffffffffffffffffffffffffffffffffffffffffffffff191614155b806113285750600160ff168260028151811061131457fe5b602001015160f81c60f81b60f81c60ff1614155b156113365760019050611362565b600061134b838686611346611920565b6119c2565b90508061135c576002915050611362565b60009150505b9392505050565b6000808311801561137b575060208311155b61138457600080fd5b600a84029350606060016040519080825280601f01601f1916602001820160405280156113c05781602001600182028038833980820191505090505b5090508360f81b816000815181106113d457fe5b60200101907effffffffffffffffffffffffffffffffffffffffffffffffffffffffffffff1916908160001a905350606060206040519080825280601f01601f1916602001820160405280156114395781602001600182028038833980820191505090505b509050606060206040519080825280601f01601f1916602001820160405280156114725781602001600182028038833980820191505090505b509050600061147f61206d565b905060208352424118600143034018602084015260208252806020830152606060206040519080825280601f01601f1916602001820160405280156114d35781602001600182028038833980820191505090505b509050886020820152606060086040519080825280601f01601f1916602001820160405280156115125781602001600182028038833980820191505090505b509050611525826018600884600061238d565b5061152e613d21565b604051806080016040528087815260200188815260200186815260200184815250905060006115936040518060400160405280600681526020017f72616e646f6d0000000000000000000000000000000000000000000000000000815250838c6123ec565b9050606060086040519080825280601f01601f1916602001820160405280156115cb5781602001600182028038833980820191505090505b50905060208401517f0100000000000000000000000000000000000000000000000000000000000000810460278301537e01000000000000000000000000000000000000000000000000000000000000810460268301537d010000000000000000000000000000000000000000000000000000000000810460258301537c0100000000000000000000000000000000000000000000000000000000810460248301537b01000000000000000000000000000000000000000000000000000000810460238301537a0100000000000000000000000000000000000000000000000000008104602283015379010000000000000000000000000000000000000000000000000081046021830153780100000000000000000000000000000000000000000000000081046020830153506118f182828560016004811061170a57fe5b602002015160028760006004811061171e57fe5b60200201516040518082805190602001908083835b602083106117565780518252602082019150602081019050602083039250611733565b6001836020036101000a038019825116818451168082178552505050505050905001915050602060405180830381855afa158015611798573d6000803e3d6000fd5b5050506040513d60208110156117ad57600080fd5b8101908080519060200190929190505050876002600481106117cb57fe5b60200201516040516020018085805190602001908083835b6020831061180657805182526020820191506020810190506020830392506117e3565b6001836020036101000a03801982511681845116808217855250505050505090500184805190602001908083835b602083106118575780518252602082019150602081019050602083039250611834565b6001836020036101000a03801982511681845116808217855250505050505090500183815260200182805190602001908083835b602083106118ae578051825260208201915060208101905060208303925061188b565b6001836020036101000a0380198251168184511680821785525050505050509050019450505050506040516020818303038152906040528051906020012061275b565b8199505050505050505050509392505050565b6000813b9050919050565b6000611919612777565b9050919050565b606060038054600181600116156101000203166002900480601f0160208091040260200160405190810160405280929190818152602001828054600181600116156101000203166002900480156119b85780601f1061198d576101008083540402835291602001916119b8565b820191906000526020600020905b81548152906001019060200180831161199b57829003601f168201915b5050505050905090565b60008060206002876045815181106119d657fe5b602001015160f81c60f81b60f81c60ff1601604401019050606060206040519080825280601f01601f191660200182016040528015611a245781602001600182028038833980820191505090505b509050611a368783602084600061238d565b50600284876040516020018083805190602001908083835b60208310611a715780518252602082019150602081019050602083039250611a4e565b6001836020036101000a038019825116818451168082178552505050505050905001828152602001925050506040516020818303038152906040526040518082805190602001908083835b60208310611adf5780518252602082019150602081019050602083039250611abc565b6001836020036101000a038019825116818451168082178552505050505050905001915050602060405180830381855afa158015611b21573d6000803e3d6000fd5b5050506040513d6020811015611b3657600080fd5b81019080805190602001909291905050506040516020018082815260200191505060405160208183030381529060405280519060200120818051906020012014611b8557600092505050612065565b60606002886001604986010181518110611b9b57fe5b602001015160f81c60f81b60f81c60ff16016040519080825280601f01601f191660200182016040528015611bdf5781602001600182028038833980820191505090505b509050611bf48860498501835184600061238d565b50611cbf6002826040518082805190602001908083835b60208310611c2e5780518252602082019150602081019050602083039250611c0b565b6001836020036101000a038019825116818451168082178552505050505050905001915050602060405180830381855afa158015611c70573d6000803e3d6000fd5b5050506040513d6020811015611c8557600080fd5b8101908080519060200190929190505050878a6008602088010181518110611ca957fe5b602001015160f81c60f81b60f81c60ff16612cce565b611ccf5760009350505050612065565b606060296040519080825280601f01601f191660200182016040528015611d055781602001600182028038833980820191505090505b509050611d1a8960208601602984600061238d565b506060604080519080825280601f01601f191660200182016040528015611d505781602001600182028038833980820191505090505b5090506000604184516029602089010101019050611d768b60408303604085600061238d565b5060006002836040518082805190602001908083835b60208310611daf5780518252602082019150602081019050602083039250611d8c565b6001836020036101000a038019825116818451168082178552505050505050905001915050602060405180830381855afa158015611df1573d6000803e3d6000fd5b5050506040513d6020811015611e0657600080fd5b8101908080519060200190929190505050905083816040516020018083805190602001908083835b60208310611e515780518252602082019150602081019050602083039250611e2e565b6001836020036101000a0380198251168184511680821785525050505050509050018281526020019250505060405160208183030381529060405280519060200120600460008d8152602001908152602001600020541415611ec957600460008c815260200190815260200160002060009055611ed9565b6000975050505050505050612065565b606060496040519080825280601f01601f191660200182016040528015611f0f5781602001600182028038833980820191505090505b509050611f218d89604984600061238d565b50611fca6002826040518082805190602001908083835b60208310611f5b5780518252602082019150602081019050602083039250611f38565b6001836020036101000a038019825116818451168082178552505050505050905001915050602060405180830381855afa158015611f9d573d6000803e3d6000fd5b5050506040513d6020811015611fb257600080fd5b81019080805190602001909291905050508786612d7e565b611fdf57600098505050505050505050612065565b6005600083815260200190815260200160002060009054906101000a900460ff166120395761200e8d84612f3c565b6005600084815260200190815260200160002060006101000a81548160ff0219169083151502179055505b6005600083815260200190815260200160002060009054906101000a900460ff16985050505050505050505b949350505050565b60008073ffffffffffffffffffffffffffffffffffffffff16600260009054906101000a900473ffffffffffffffffffffffffffffffffffffffff1673ffffffffffffffffffffffffffffffffffffffff1614806120f5575060006120f3600260009054906101000a900473ffffffffffffffffffffffffffffffffffffffff16611904565b145b1561210657612104600061190f565b505b600260009054906101000a900473ffffffffffffffffffffffffffffffffffffffff1673ffffffffffffffffffffffffffffffffffffffff166338cc48316040518163ffffffff1660e01b8152600401602060405180830381600087803b15801561217057600080fd5b505af1158015612184573d6000803e3d6000fd5b505050506040513d602081101561219a57600080fd5b810190808051906020019092919050505073ffffffffffffffffffffffffffffffffffffffff16600160009054906101000a900473ffffffffffffffffffffffffffffffffffffffff1673ffffffffffffffffffffffffffffffffffffffff16146122e557600260009054906101000a900473ffffffffffffffffffffffffffffffffffffffff1673ffffffffffffffffffffffffffffffffffffffff166338cc48316040518163ffffffff1660e01b8152600401602060405180830381600087803b15801561226957600080fd5b505af115801561227d573d6000803e3d6000fd5b505050506040513d602081101561229357600080fd5b8101908080519060200190929190505050600160006101000a81548173ffffffffffffffffffffffffffffffffffffffff021916908373ffffffffffffffffffffffffffffffffffffffff1602179055505b600160009054906101000a900473ffffffffffffffffffffffffffffffffffffffff1673ffffffffffffffffffffffffffffffffffffffff1663abaa5f3e6040518163ffffffff1660e01b815260040160206040518083038186803b15801561234d57600080fd5b505afa158015612361573d6000803e3d6000fd5b505050506040513d602081101561237757600080fd5b8101908080519060200190929190505050905090565b60606000828501905080845110156123a457600080fd5b600086602001905060008460200190505b8688602001018210156123dd57818901518082880152506020820191506020810190506123b5565b85935050505095945050505050565b60008073ffffffffffffffffffffffffffffffffffffffff16600260009054906101000a900473ffffffffffffffffffffffffffffffffffffffff1673ffffffffffffffffffffffffffffffffffffffff16148061247457506000612472600260009054906101000a900473ffffffffffffffffffffffffffffffffffffffff16611904565b145b1561248557612483600061190f565b505b600260009054906101000a900473ffffffffffffffffffffffffffffffffffffffff1673ffffffffffffffffffffffffffffffffffffffff166338cc48316040518163ffffffff1660e01b8152600401602060405180830381600087803b1580156124ef57600080fd5b505af1158015612503573d6000803e3d6000fd5b505050506040513d602081101561251957600080fd5b810190808051906020019092919050505073ffffffffffffffffffffffffffffffffffffffff16600160009054906101000a900473ffffffffffffffffffffffffffffffffffffffff1673ffffffffffffffffffffffffffffffffffffffff161461266457600260009054906101000a900473ffffffffffffffffffffffffffffffffffffffff1673ffffffffffffffffffffffffffffffffffffffff166338cc48316040518163ffffffff1660e01b8152600401602060405180830381600087803b1580156125e857600080fd5b505af11580156125fc573d6000803e3d6000fd5b505050506040513d602081101561261257600080fd5b8101908080519060200190929190505050600160006101000a81548173ffffffffffffffffffffffffffffffffffffffff021916908373ffffffffffffffffffffffffffffffffffffffff1602179055505b6060600460405190808252806020026020018201604052801561269b57816020015b60608152602001906001900390816126865790505b509050836000600481106126ab57fe5b6020020151816000815181106126bd57fe5b6020026020010181905250836001600481106126d557fe5b6020020151816001815181106126e757fe5b6020026020010181905250836002600481106126ff57fe5b60200201518160028151811061271157fe5b60200260200101819052508360036004811061272957fe5b60200201518160038151811061273b57fe5b6020026020010181905250612751858285613354565b9150509392505050565b8060046000848152602001908152602001600020819055505050565b600080612797731d3b2638a7cc9f2cb3d298a3da7a90b67e5506ed611904565b111561283957731d3b2638a7cc9f2cb3d298a3da7a90b67e5506ed600260006101000a81548173ffffffffffffffffffffffffffffffffffffffff021916908373ffffffffffffffffffffffffffffffffffffffff1602179055506128306040518060400160405280600b81526020017f6574685f6d61696e6e65740000000000000000000000000000000000000000008152506138ba565b60019050612ccb565b600061285873c03a2615d5efaf5f49f60b7bb6583eaec212fdf1611904565b11156128fa5773c03a2615d5efaf5f49f60b7bb6583eaec212fdf1600260006101000a81548173ffffffffffffffffffffffffffffffffffffffff021916908373ffffffffffffffffffffffffffffffffffffffff1602179055506128f16040518060400160405280600c81526020017f6574685f726f707374656e3300000000000000000000000000000000000000008152506138ba565b60019050612ccb565b600061291973b7a07bcf2ba2f2703b24c0691b5278999c59ac7e611904565b11156129bb5773b7a07bcf2ba2f2703b24c0691b5278999c59ac7e600260006101000a81548173ffffffffffffffffffffffffffffffffffffffff021916908373ffffffffffffffffffffffffffffffffffffffff1602179055506129b26040518060400160405280600981526020017f6574685f6b6f76616e00000000000000000000000000000000000000000000008152506138ba565b60019050612ccb565b60006129da73146500cfd35b22e4a392fe0adc06de1a1368ed48611904565b1115612a7c5773146500cfd35b22e4a392fe0adc06de1a1368ed48600260006101000a81548173ffffffffffffffffffffffffffffffffffffffff021916908373ffffffffffffffffffffffffffffffffffffffff160217905550612a736040518060400160405280600b81526020017f6574685f72696e6b6562790000000000000000000000000000000000000000008152506138ba565b60019050612ccb565b6000612a9b73a2998efd205fb9d4b4963afb70778d6354ad3a41611904565b1115612b3d5773a2998efd205fb9d4b4963afb70778d6354ad3a41600260006101000a81548173ffffffffffffffffffffffffffffffffffffffff021916908373ffffffffffffffffffffffffffffffffffffffff160217905550612b346040518060400160405280600a81526020017f6574685f676f65726c69000000000000000000000000000000000000000000008152506138ba565b60019050612ccb565b6000612b5c736f485c8bf6fc43ea212e93bbf8ce046c7f1cb475611904565b1115612bc057736f485c8bf6fc43ea212e93bbf8ce046c7f1cb475600260006101000a81548173ffffffffffffffffffffffffffffffffffffffff021916908373ffffffffffffffffffffffffffffffffffffffff16021790555060019050612ccb565b6000612bdf7320e12a1f859b3feae5fb2a0a32c18f5a65555bbf611904565b1115612c43577320e12a1f859b3feae5fb2a0a32c18f5a65555bbf600260006101000a81548173ffffffffffffffffffffffffffffffffffffffff021916908373ffffffffffffffffffffffffffffffffffffffff16021790555060019050612ccb565b6000612c627351efaf4c8b3c9afbd5ab9f4bbc82784ab6ef8faa611904565b1115612cc6577351efaf4c8b3c9afbd5ab9f4bbc82784ab6ef8faa600260006101000a81548173ffffffffffffffffffffffffffffffffffffffff021916908373ffffffffffffffffffffffffffffffffffffffff16021790555060019050612ccb565b600090505b90565b6000806001905082845114612ce257600080fd5b60008090505b83811015612d7257848181518110612cfc57fe5b602001015160f81c60f81b7effffffffffffffffffffffffffffffffffffffffffffffffffffffffffffff1916868260208110612d3557fe5b1a60f81b7effffffffffffffffffffffffffffffffffffffffffffffffffffffffffffff191614612d6557600091505b8080600101915050612ce8565b50809150509392505050565b6000806000806000606060206040519080825280601f01601f191660200182016040528015612dbc5781602001600182028038833980820191505090505b5090506000602089600381518110612dd057fe5b602001015160f81c60f81b60f81c60ff16036004019050612df68982602085600061238d565b9150606060206040519080825280601f01601f191660200182016040528015612e2e5781602001600182028038833980820191505090505b509050602282019150612e6a8a60208c6001860381518110612e4c57fe5b602001015160f81c60f81b60f81c60ff16038401602084600061238d565b90506020830151945060208101519350612e878b601b87876138d4565b80975081985050508573ffffffffffffffffffffffffffffffffffffffff16898051906020012060001c73ffffffffffffffffffffffffffffffffffffffff161415612edd576001975050505050505050612f35565b612eea8b601c87876138d4565b80975081985050508573ffffffffffffffffffffffffffffffffffffffff16898051906020012060001c73ffffffffffffffffffffffffffffffffffffffff16149750505050505050505b9392505050565b60008060606002856001860181518110612f5257fe5b602001015160f81c60f81b60f81c60ff16016040519080825280601f01601f191660200182016040528015612f965781602001600182028038833980820191505090505b509050612fa88585835184600061238d565b506060604080519080825280601f01601f191660200182016040528015612fde5781602001600182028038833980820191505090505b509050612ff1866004604084600061238d565b50606060626040519080825280601f01601f1916602001820160405280156130285781602001600182028038833980820191505090505b509050600160f81b8160008151811061303d57fe5b60200101907effffffffffffffffffffffffffffffffffffffffffffffffffffffffffffff1916908160001a90535061307e8760418803604184600161238d565b5060606040518060400160405280602081526020017ffd94fa71bc0ba10d39d464d0d8f465efeef0a2764e3887fcc9df41ded20f505c81525090506130c9816000602085604261238d565b506131726002836040518082805190602001908083835b6020831061310357805182526020820191506020810190506020830392506130e0565b6001836020036101000a038019825116818451168082178552505050505050905001915050602060405180830381855afa158015613145573d6000803e3d6000fd5b5050506040513d602081101561315a57600080fd5b81019080805190602001909291905050508585612d7e565b9450846131875760009550505050505061334e565b6060604051806060016040528060408152602001613e68604091399050606060426040519080825280601f01601f1916602001820160405280156131da5781602001600182028038833980820191505090505b50905060fe60f81b816000815181106131ef57fe5b60200101907effffffffffffffffffffffffffffffffffffffffffffffffffffffffffffff1916908160001a90535061322e8a6003604184600161238d565b50606060028b60458151811061324057fe5b602001015160f81c60f81b60f81c60ff16016040519080825280601f01601f1916602001820160405280156132845781602001600182028038833980820191505090505b5090506132978b6044835184600061238d565b506133406002836040518082805190602001908083835b602083106132d157805182526020820191506020810190506020830392506132ae565b6001836020036101000a038019825116818451168082178552505050505050905001915050602060405180830381855afa158015613313573d6000803e3d6000fd5b5050506040513d602081101561332857600080fd5b81019080805190602001909291905050508285612d7e565b975087985050505050505050505b92915050565b60008073ffffffffffffffffffffffffffffffffffffffff16600260009054906101000a900473ffffffffffffffffffffffffffffffffffffffff1673ffffffffffffffffffffffffffffffffffffffff1614806133dc575060006133da600260009054906101000a900473ffffffffffffffffffffffffffffffffffffffff16611904565b145b156133ed576133eb600061190f565b505b600260009054906101000a900473ffffffffffffffffffffffffffffffffffffffff1673ffffffffffffffffffffffffffffffffffffffff166338cc48316040518163ffffffff1660e01b8152600401602060405180830381600087803b15801561345757600080fd5b505af115801561346b573d6000803e3d6000fd5b505050506040513d602081101561348157600080fd5b810190808051906020019092919050505073ffffffffffffffffffffffffffffffffffffffff16600160009054906101000a900473ffffffffffffffffffffffffffffffffffffffff1673ffffffffffffffffffffffffffffffffffffffff16146135cc57600260009054906101000a900473ffffffffffffffffffffffffffffffffffffffff1673ffffffffffffffffffffffffffffffffffffffff166338cc48316040518163ffffffff1660e01b8152600401602060405180830381600087803b15801561355057600080fd5b505af1158015613564573d6000803e3d6000fd5b505050506040513d602081101561357a57600080fd5b8101908080519060200190929190505050600160006101000a81548173ffffffffffffffffffffffffffffffffffffffff021916908373ffffffffffffffffffffffffffffffffffffffff1602179055505b6000600160009054906101000a900473ffffffffffffffffffffffffffffffffffffffff1673ffffffffffffffffffffffffffffffffffffffff16632ef3accc86856040518363ffffffff1660e01b81526004018080602001838152602001828103825284818151815260200191508051906020019080838360005b83811015613663578082015181840152602081019050613648565b50505050905090810190601f1680156136905780820380516001836020036101000a031916815260200191505b509350505050602060405180830381600087803b1580156136b057600080fd5b505af11580156136c4573d6000803e3d6000fd5b505050506040513d60208110156136da57600080fd5b81019080805190602001909291905050509050823a02670de0b6b3a76400000181111561370d576000801b9150506138b3565b606061371885613918565b9050600160009054906101000a900473ffffffffffffffffffffffffffffffffffffffff1673ffffffffffffffffffffffffffffffffffffffff1663c55c1cb68360008985896040518663ffffffff1660e01b8152600401808581526020018060200180602001848152602001838103835286818151815260200191508051906020019080838360005b838110156137bd5780820151818401526020810190506137a2565b50505050905090810190601f1680156137ea5780820380516001836020036101000a031916815260200191505b50838103825285818151815260200191508051906020019080838360005b83811015613823578082015181840152602081019050613808565b50505050905090810190601f1680156138505780820380516001836020036101000a031916815260200191505b5096505050505050506020604051808303818588803b15801561387257600080fd5b505af1158015613886573d6000803e3d6000fd5b50505050506040513d602081101561389d57600080fd5b8101908080519060200190929190505050925050505b9392505050565b80600390805190602001906138d0929190613d48565b5050565b60008060008060405188815287602082015286604082015285606082015260208160808360006001610bb8f192508051915050818193509350505094509492505050565b6060613922613998565b61392a613dc8565b613936816104006139a4565b61393f816139ee565b60008090505b83518110156139815761397484828151811061395d57fe5b6020026020010151836139fc90919063ffffffff16565b8080600101915050613945565b5061398b81613a21565b8060000151915050919050565b60405180590338823950565b60008190506000602082816139b557fe5b06146139ce57602081816139c557fe5b06602003810190505b808360200181815250506040518084526000815281810160405250505050565b6139f9816004613a2f565b50565b613a098260028351613a50565b613a1c8183613b9090919063ffffffff16565b505050565b613a2c816007613a2f565b50565b613a4c601f60058360ff16901b1783613c3b90919063ffffffff16565b5050565b60178111613a7c57613a778160058460ff16901b60ff161784613c3b90919063ffffffff16565b613b8b565b60ff8111613abd57613aa1601860058460ff16901b1784613c3b90919063ffffffff16565b613ab781600185613c7b9092919063ffffffff16565b50613b8a565b61ffff8111613aff57613ae3601960058460ff16901b1784613c3b90919063ffffffff16565b613af981600285613c7b9092919063ffffffff16565b50613b89565b63ffffffff8111613b4357613b27601a60058460ff16901b1784613c3b90919063ffffffff16565b613b3d81600485613c7b9092919063ffffffff16565b50613b88565b67ffffffffffffffff8111613b8757613b6f601b60058460ff16901b1784613c3b90919063ffffffff16565b613b8581600885613c7b9092919063ffffffff16565b505b5b5b5b5b505050565b613b98613dc8565b82602001518360000151518351011115613bc857613bc7836002613bc186602001518651613ce2565b02613cfe565b5b60008060008451905085518051602081830101945086518101825260208701935050505b60208110613c0f5781518352602083019250602082019150602081039050613bec565b60006001826020036101000a039050801983511681855116818117865250508694505050505092915050565b81602001516001836000015151011115613c6157613c60826002846020015102613cfe565b5b815180516020818301018381536001820183525050505050565b613c83613dc8565b836020015184600001515183011115613cb157613cb0846002613caa876020015186613ce2565b02613cfe565b5b60006001836101000a0390508451805184818301018684198251161781528582018352505050849150509392505050565b600081831115613cf457829050613cf8565b8190505b92915050565b606082600001519050613d1183836139a4565b613d1b8382613b90565b50505050565b60405180608001604052806004905b6060815260200190600190039081613d305790505090565b828054600181600116156101000203166002900490600052602060002090601f016020900481019282601f10613d8957805160ff1916838001178555613db7565b82800160010185558215613db7579182015b82811115613db6578251825591602001919060010190613d9b565b5b509050613dc49190613de2565b5090565b604051806040016040528060608152602001600081525090565b613e0491905b80821115613e00576000816000905550600101613de8565b5090565b9056fe596f7520617265206e6f7420656e7469746c656420746f206578656375746520746869732066756e6374696f6e2e50726f7661626c65207175657279207761732073656e742c207374616e64696e6720627920666f7220616e737765722e2e2e7fb956469c5c9b89840d55b43537e66a98dd4811ea0a27224272c2e5622911e8537a2f8e86a46baec82864e98dd01e9ccc2f8bc5dfc9cbe5a91a290498dd96e4a265627a7a723158206aa848ec5ba95b0181d1b527709876672e2ec7aeaaa1ee65185e978f1b7a40ff64736f6c634300050c003250726f7661626c65207175657279207761732073656e742c207374616e64696e6720627920666f7220616e737765722e2e2e",
  "source": "import\"./Ownable.sol\";\r\nimport\"./provableAPI.sol\";\r\n\r\npragma solidity 0.5.12;\r\n\r\ncontract FlipContract is Ownable, usingProvable {\r\n\r\n    uint256 constant NUM_RANDOM_BYTES_REQUESTED = 1;    //Value of 1-32: But why unit256? Isn't uint8 enought? In ProvableAPI.sol in line 1077 there is even a conversion to uint8 >> byte(uint8(_nbytes));\r\n    bytes32 queryId;                                    //Is it realy necessary to have it as state variable?\r\n\r\n    struct Bet {                                        //Struct Variable for betting process\r\n        address payable player;                         //msg.sender is the player\r\n        uint value;                                     //betting value (double or loose)\r\n        bool result;                                    //win or loose result\r\n    }\r\n//* Events */\r\n    event betTaken(address player, uint value, bool result);\r\n    event funded(address contractOwner, uint funding);\r\n    event LogNewProvableQuery(string description);\r\n    event generatedRandomNumber(uint256 randomNumber);\r\n\r\n    mapping (bytes32 => Bet) public betting;            //Query Id coupling to Bet\r\n    mapping (address => bool) public waiting;           //Msg.sender waiting system (Player have to wait until previous bet is taken and finished)\r\n\r\n    constructor() public {\r\n        provable_setProof(proofType_Ledger);\r\n        flip();\r\n    }\r\n\r\n    modifier costs(uint cost){\r\n        require(msg.value >= cost, \"The minimum bet is 0.01 Ether\");\r\n        _;\r\n    }\r\n    // Oracle Callback Function of the flip() function\r\n    function __callback(bytes32 _queryId, string memory _result, bytes memory _proof) public {\r\n        require(msg.sender == provable_cbAddress());\r\n\r\n        if (provable_randomDS_proofVerify__returnCode(_queryId, _result, _proof) != 0) {\r\n            /*\r\n             * @notice  The proof verification has failed! Handle this case\r\n             *          however you see fit. --> Not sure what to do here.\r\n            */\r\n        }\r\n        else {\r\n\r\n        uint256 randomNumber = uint256(keccak256(abi.encodePacked(_result))) % 2;\r\n\r\n        if(randomNumber == 0){\r\n            betting[_queryId].result == false;\r\n        }\r\n        else if(randomNumber == 1){\r\n            betting[_queryId].result == true;\r\n            betting[_queryId].player.transfer((betting[_queryId].value)*2);\r\n        }\r\n\r\n        waiting[betting[_queryId].player] = false;\r\n\r\n        emit betTaken(betting[_queryId].player, betting[_queryId].value, betting[_queryId].result);\r\n        emit generatedRandomNumber(randomNumber);\r\n       }\r\n    }\r\n    // Function to simulate coin flip 50/50 randomnes\r\n    function flip() public payable {\r\n        //require(msg.value <= address(this).balance / 2, \"Jackpot is the max bet you can make\");\r\n        require(waiting[msg.sender] == false);\r\n        waiting[msg.sender] = true;\r\n\r\n        uint256 QUERY_EXECUTION_DELAY = 0;      //config: execution delay (0 for no delay)\r\n        uint256 GAS_FOR_CALLBACK = 200000;      //config: gas fee for calling __callback function (200000 is standard)\r\n        queryId = provable_newRandomDSQuery(QUERY_EXECUTION_DELAY, NUM_RANDOM_BYTES_REQUESTED, GAS_FOR_CALLBACK);     //function to query a random number, it will call the __callback function\r\n\r\n        betting[queryId] = Bet({player: msg.sender, value: msg.value, result: false});      //Initialize Bet with values of player\r\n\r\n        emit LogNewProvableQuery(\"Provable query was sent, standing by for answer...\");\r\n    }\r\n    // Function to Withdraw Funds\r\n    function withdrawAll() public onlyContractOwner returns(uint){\r\n        //Should require that no bet is prozess! \r\n        msg.sender.transfer(address(this).balance);\r\n        assert(address(this).balance == 0);\r\n        return address(this).balance;\r\n    }\r\n    // Function to get the Balance of the Contract\r\n    function getBalance() public view returns (address, uint) {\r\n        return (address(this), address(this).balance);\r\n    }\r\n    // Fund the Contract\r\n    function fundContract() public payable onlyContractOwner returns(uint){\r\n        require(msg.value != 0);\r\n        //ContractBalance += msg.value;\r\n        emit funded(msg.sender, msg.value);\r\n        //assert(ContractBalance == address(this).balance);\r\n        return msg.value;\r\n    }\r\n\r\n}",
  "sourcePath": "C:/Users/pault/OneDrive/GitHub/BetFlipDApp/contracts/FlipContract.sol",
  "compiler": {
    "name": "solc",
    "version": "0.5.12+commit.7709ece9.Emscripten.clang"
  },
  "schemaVersion": "3.0.16",
  "updatedAt": "2020-01-06T11:14:49.575Z",
  "devdoc": {
    "methods": {
      "__callback(bytes32,string)": {
        "details": "The following `__callback` functions are just placeholders ideally     meant to be defined in child contract when proofs are used.     The function bodies simply silence compiler warnings."
      }
    }
  },
  "userdoc": {
    "methods": {}
  }
}