{
  "contractName": "FlipContract",
  "abi": [
    {
      "inputs": [],
      "payable": false,
      "stateMutability": "nonpayable",
      "type": "constructor"
    },
    {
      "anonymous": false,
      "inputs": [
        {
          "indexed": false,
          "internalType": "string",
          "name": "description",
          "type": "string"
        }
      ],
      "name": "LogNewProvableQuery",
      "type": "event"
    },
    {
      "anonymous": false,
      "inputs": [
        {
          "indexed": false,
          "internalType": "address",
          "name": "user",
          "type": "address"
        },
        {
          "indexed": false,
          "internalType": "uint256",
          "name": "bet",
          "type": "uint256"
        },
        {
          "indexed": false,
          "internalType": "bool",
          "name": "",
          "type": "bool"
        }
      ],
      "name": "betTaken",
      "type": "event"
    },
    {
      "anonymous": false,
      "inputs": [
        {
          "indexed": false,
          "internalType": "address",
          "name": "contractOwner",
          "type": "address"
        },
        {
          "indexed": false,
          "internalType": "uint256",
          "name": "funding",
          "type": "uint256"
        }
      ],
      "name": "funded",
      "type": "event"
    },
    {
      "anonymous": false,
      "inputs": [
        {
          "indexed": false,
          "internalType": "uint256",
          "name": "randomNumber",
          "type": "uint256"
        }
      ],
      "name": "generatedRandomNumber",
      "type": "event"
    },
    {
      "constant": true,
      "inputs": [],
      "name": "contractOwner",
      "outputs": [
        {
          "internalType": "address",
          "name": "",
          "type": "address"
        }
      ],
      "payable": false,
      "stateMutability": "view",
      "type": "function"
    },
    {
      "constant": true,
      "inputs": [],
      "name": "latestNumber",
      "outputs": [
        {
          "internalType": "uint256",
          "name": "",
          "type": "uint256"
        }
      ],
      "payable": false,
      "stateMutability": "view",
      "type": "function"
    },
    {
      "constant": false,
      "inputs": [
        {
          "internalType": "address",
          "name": "newOwner",
          "type": "address"
        }
      ],
      "name": "transferOwnership",
      "outputs": [],
      "payable": false,
      "stateMutability": "nonpayable",
      "type": "function"
    },
    {
      "constant": false,
      "inputs": [
        {
          "internalType": "bytes32",
          "name": "_myid",
          "type": "bytes32"
        },
        {
          "internalType": "string",
          "name": "_result",
          "type": "string"
        }
      ],
      "name": "__callback",
      "outputs": [],
      "payable": false,
      "stateMutability": "nonpayable",
      "type": "function"
    },
    {
      "constant": false,
      "inputs": [
        {
          "internalType": "bytes32",
          "name": "_queryId",
          "type": "bytes32"
        },
        {
          "internalType": "string",
          "name": "_result",
          "type": "string"
        },
        {
          "internalType": "bytes",
          "name": "_proof",
          "type": "bytes"
        }
      ],
      "name": "__callback",
      "outputs": [],
      "payable": false,
      "stateMutability": "nonpayable",
      "type": "function"
    },
    {
      "constant": false,
      "inputs": [],
      "name": "flip",
      "outputs": [],
      "payable": true,
      "stateMutability": "payable",
      "type": "function"
    },
    {
      "constant": false,
      "inputs": [],
      "name": "withdrawAll",
      "outputs": [
        {
          "internalType": "uint256",
          "name": "",
          "type": "uint256"
        }
      ],
      "payable": false,
      "stateMutability": "nonpayable",
      "type": "function"
    },
    {
      "constant": true,
      "inputs": [],
      "name": "getBalance",
      "outputs": [
        {
          "internalType": "address",
          "name": "",
          "type": "address"
        },
        {
          "internalType": "uint256",
          "name": "",
          "type": "uint256"
        }
      ],
      "payable": false,
      "stateMutability": "view",
      "type": "function"
    },
    {
      "constant": false,
      "inputs": [],
      "name": "fundContract",
      "outputs": [
        {
          "internalType": "uint256",
          "name": "",
          "type": "uint256"
        }
      ],
      "payable": true,
      "stateMutability": "payable",
      "type": "function"
    }
  ],
  "bytecode": "0x60806040523480156200001157600080fd5b50336000806101000a81548173ffffffffffffffffffffffffffffffffffffffff021916908373ffffffffffffffffffffffffffffffffffffffff16021790555062000067603060f81b6200007d60201b60201c565b62000077620003e360201b60201c565b62002354565b600073ffffffffffffffffffffffffffffffffffffffff16600260009054906101000a900473ffffffffffffffffffffffffffffffffffffffff1673ffffffffffffffffffffffffffffffffffffffff1614806200010d575060006200010b600260009054906101000a900473ffffffffffffffffffffffffffffffffffffffff166200049d60201b60201c565b145b156200012757620001256000620004a860201b60201c565b505b600260009054906101000a900473ffffffffffffffffffffffffffffffffffffffff1673ffffffffffffffffffffffffffffffffffffffff166338cc48316040518163ffffffff1660e01b8152600401602060405180830381600087803b1580156200019257600080fd5b505af1158015620001a7573d6000803e3d6000fd5b505050506040513d6020811015620001be57600080fd5b810190808051906020019092919050505073ffffffffffffffffffffffffffffffffffffffff16600160009054906101000a900473ffffffffffffffffffffffffffffffffffffffff1673ffffffffffffffffffffffffffffffffffffffff16146200030d57600260009054906101000a900473ffffffffffffffffffffffffffffffffffffffff1673ffffffffffffffffffffffffffffffffffffffff166338cc48316040518163ffffffff1660e01b8152600401602060405180830381600087803b1580156200028f57600080fd5b505af1158015620002a4573d6000803e3d6000fd5b505050506040513d6020811015620002bb57600080fd5b8101908080519060200190929190505050600160006101000a81548173ffffffffffffffffffffffffffffffffffffffff021916908373ffffffffffffffffffffffffffffffffffffffff1602179055505b600160009054906101000a900473ffffffffffffffffffffffffffffffffffffffff1673ffffffffffffffffffffffffffffffffffffffff1663688dcfd7826040518263ffffffff1660e01b815260040180827effffffffffffffffffffffffffffffffffffffffffffffffffffffffffffff19167effffffffffffffffffffffffffffffffffffffffffffffffffffffffffffff19168152602001915050600060405180830381600087803b158015620003c757600080fd5b505af1158015620003dc573d6000803e3d6000fd5b5050505050565b3460078190555033600860006101000a81548173ffffffffffffffffffffffffffffffffffffffff021916908373ffffffffffffffffffffffffffffffffffffffff1602179055506000809050600062030d4090506200044c82600183620004c160201b60201c565b507fc4dc360d0a9c0677a3379ae0a3d81e887f761e65fdf3d7e00859d1bcd3c4738960405180806020018281038252603281526020018062005e8b6032913960400191505060405180910390a15050565b6000813b9050919050565b6000620004ba62000a9460201b60201c565b9050919050565b60008083118015620004d4575060208311155b620004de57600080fd5b600a84029350606060016040519080825280601f01601f1916602001820160405280156200051b5781602001600182028038833980820191505090505b5090508360f81b816000815181106200053057fe5b60200101907effffffffffffffffffffffffffffffffffffffffffffffffffffffffffffff1916908160001a905350606060206040519080825280601f01601f191660200182016040528015620005965781602001600182028038833980820191505090505b509050606060206040519080825280601f01601f191660200182016040528015620005d05781602001600182028038833980820191505090505b5090506000620005e56200106360201b60201c565b905060208352424118600143034018602084015260208252806020830152606060206040519080825280601f01601f1916602001820160405280156200063a5781602001600182028038833980820191505090505b509050886020820152606060086040519080825280601f01601f1916602001820160405280156200067a5781602001600182028038833980820191505090505b5090506200069582601860088460006200139f60201b60201c565b50620006a062002263565b604051806080016040528087815260200188815260200186815260200184815250905060006200070d6040518060400160405280600681526020017f72616e646f6d0000000000000000000000000000000000000000000000000000815250838c6200140160201b60201c565b9050606060086040519080825280601f01601f191660200182016040528015620007465781602001600182028038833980820191505090505b50905060208401517f0100000000000000000000000000000000000000000000000000000000000000810460278301537e01000000000000000000000000000000000000000000000000000000000000810460268301537d010000000000000000000000000000000000000000000000000000000000810460258301537c0100000000000000000000000000000000000000000000000000000000810460248301537b01000000000000000000000000000000000000000000000000000000810460238301537a01000000000000000000000000000000000000000000000000000081046022830153790100000000000000000000000000000000000000000000000000810460218301537801000000000000000000000000000000000000000000000000810460208301535062000a818282856001600481106200088757fe5b60200201516002876000600481106200089c57fe5b60200201516040518082805190602001908083835b60208310620008d65780518252602082019150602081019050602083039250620008b1565b6001836020036101000a038019825116818451168082178552505050505050905001915050602060405180830381855afa15801562000919573d6000803e3d6000fd5b5050506040513d60208110156200092f57600080fd5b8101908080519060200190929190505050876002600481106200094e57fe5b60200201516040516020018085805190602001908083835b602083106200098b578051825260208201915060208101905060208303925062000966565b6001836020036101000a03801982511681845116808217855250505050505090500184805190602001908083835b60208310620009de5780518252602082019150602081019050602083039250620009b9565b6001836020036101000a03801982511681845116808217855250505050505090500183815260200182805190602001908083835b6020831062000a37578051825260208201915060208101905060208303925062000a12565b6001836020036101000a038019825116818451168082178552505050505050905001945050505050604051602081830303815290604052805190602001206200179b60201b60201c565b8199505050505050505050509392505050565b60008062000abc731d3b2638a7cc9f2cb3d298a3da7a90b67e5506ed6200049d60201b60201c565b111562000b6857731d3b2638a7cc9f2cb3d298a3da7a90b67e5506ed600260006101000a81548173ffffffffffffffffffffffffffffffffffffffff021916908373ffffffffffffffffffffffffffffffffffffffff16021790555062000b5e6040518060400160405280600b81526020017f6574685f6d61696e6e6574000000000000000000000000000000000000000000815250620017b760201b60201c565b6001905062001060565b600062000b8f73c03a2615d5efaf5f49f60b7bb6583eaec212fdf16200049d60201b60201c565b111562000c3b5773c03a2615d5efaf5f49f60b7bb6583eaec212fdf1600260006101000a81548173ffffffffffffffffffffffffffffffffffffffff021916908373ffffffffffffffffffffffffffffffffffffffff16021790555062000c316040518060400160405280600c81526020017f6574685f726f707374656e330000000000000000000000000000000000000000815250620017b760201b60201c565b6001905062001060565b600062000c6273b7a07bcf2ba2f2703b24c0691b5278999c59ac7e6200049d60201b60201c565b111562000d0e5773b7a07bcf2ba2f2703b24c0691b5278999c59ac7e600260006101000a81548173ffffffffffffffffffffffffffffffffffffffff021916908373ffffffffffffffffffffffffffffffffffffffff16021790555062000d046040518060400160405280600981526020017f6574685f6b6f76616e0000000000000000000000000000000000000000000000815250620017b760201b60201c565b6001905062001060565b600062000d3573146500cfd35b22e4a392fe0adc06de1a1368ed486200049d60201b60201c565b111562000de15773146500cfd35b22e4a392fe0adc06de1a1368ed48600260006101000a81548173ffffffffffffffffffffffffffffffffffffffff021916908373ffffffffffffffffffffffffffffffffffffffff16021790555062000dd76040518060400160405280600b81526020017f6574685f72696e6b656279000000000000000000000000000000000000000000815250620017b760201b60201c565b6001905062001060565b600062000e0873a2998efd205fb9d4b4963afb70778d6354ad3a416200049d60201b60201c565b111562000eb45773a2998efd205fb9d4b4963afb70778d6354ad3a41600260006101000a81548173ffffffffffffffffffffffffffffffffffffffff021916908373ffffffffffffffffffffffffffffffffffffffff16021790555062000eaa6040518060400160405280600a81526020017f6574685f676f65726c6900000000000000000000000000000000000000000000815250620017b760201b60201c565b6001905062001060565b600062000edb736f485c8bf6fc43ea212e93bbf8ce046c7f1cb4756200049d60201b60201c565b111562000f4157736f485c8bf6fc43ea212e93bbf8ce046c7f1cb475600260006101000a81548173ffffffffffffffffffffffffffffffffffffffff021916908373ffffffffffffffffffffffffffffffffffffffff1602179055506001905062001060565b600062000f687320e12a1f859b3feae5fb2a0a32c18f5a65555bbf6200049d60201b60201c565b111562000fce577320e12a1f859b3feae5fb2a0a32c18f5a65555bbf600260006101000a81548173ffffffffffffffffffffffffffffffffffffffff021916908373ffffffffffffffffffffffffffffffffffffffff1602179055506001905062001060565b600062000ff57351efaf4c8b3c9afbd5ab9f4bbc82784ab6ef8faa6200049d60201b60201c565b11156200105b577351efaf4c8b3c9afbd5ab9f4bbc82784ab6ef8faa600260006101000a81548173ffffffffffffffffffffffffffffffffffffffff021916908373ffffffffffffffffffffffffffffffffffffffff1602179055506001905062001060565b600090505b90565b60008073ffffffffffffffffffffffffffffffffffffffff16600260009054906101000a900473ffffffffffffffffffffffffffffffffffffffff1673ffffffffffffffffffffffffffffffffffffffff161480620010f457506000620010f2600260009054906101000a900473ffffffffffffffffffffffffffffffffffffffff166200049d60201b60201c565b145b156200110e576200110c6000620004a860201b60201c565b505b600260009054906101000a900473ffffffffffffffffffffffffffffffffffffffff1673ffffffffffffffffffffffffffffffffffffffff166338cc48316040518163ffffffff1660e01b8152600401602060405180830381600087803b1580156200117957600080fd5b505af11580156200118e573d6000803e3d6000fd5b505050506040513d6020811015620011a557600080fd5b810190808051906020019092919050505073ffffffffffffffffffffffffffffffffffffffff16600160009054906101000a900473ffffffffffffffffffffffffffffffffffffffff1673ffffffffffffffffffffffffffffffffffffffff1614620012f457600260009054906101000a900473ffffffffffffffffffffffffffffffffffffffff1673ffffffffffffffffffffffffffffffffffffffff166338cc48316040518163ffffffff1660e01b8152600401602060405180830381600087803b1580156200127657600080fd5b505af11580156200128b573d6000803e3d6000fd5b505050506040513d6020811015620012a257600080fd5b8101908080519060200190929190505050600160006101000a81548173ffffffffffffffffffffffffffffffffffffffff021916908373ffffffffffffffffffffffffffffffffffffffff1602179055505b600160009054906101000a900473ffffffffffffffffffffffffffffffffffffffff1673ffffffffffffffffffffffffffffffffffffffff1663abaa5f3e6040518163ffffffff1660e01b815260040160206040518083038186803b1580156200135d57600080fd5b505afa15801562001372573d6000803e3d6000fd5b505050506040513d60208110156200138957600080fd5b8101908080519060200190929190505050905090565b6060600082850190508084511015620013b757600080fd5b600086602001905060008460200190505b868860200101821015620013f25781890151808288015250602082019150602081019050620013c8565b85935050505095945050505050565b60008073ffffffffffffffffffffffffffffffffffffffff16600260009054906101000a900473ffffffffffffffffffffffffffffffffffffffff1673ffffffffffffffffffffffffffffffffffffffff161480620014925750600062001490600260009054906101000a900473ffffffffffffffffffffffffffffffffffffffff166200049d60201b60201c565b145b15620014ac57620014aa6000620004a860201b60201c565b505b600260009054906101000a900473ffffffffffffffffffffffffffffffffffffffff1673ffffffffffffffffffffffffffffffffffffffff166338cc48316040518163ffffffff1660e01b8152600401602060405180830381600087803b1580156200151757600080fd5b505af11580156200152c573d6000803e3d6000fd5b505050506040513d60208110156200154357600080fd5b810190808051906020019092919050505073ffffffffffffffffffffffffffffffffffffffff16600160009054906101000a900473ffffffffffffffffffffffffffffffffffffffff1673ffffffffffffffffffffffffffffffffffffffff16146200169257600260009054906101000a900473ffffffffffffffffffffffffffffffffffffffff1673ffffffffffffffffffffffffffffffffffffffff166338cc48316040518163ffffffff1660e01b8152600401602060405180830381600087803b1580156200161457600080fd5b505af115801562001629573d6000803e3d6000fd5b505050506040513d60208110156200164057600080fd5b8101908080519060200190929190505050600160006101000a81548173ffffffffffffffffffffffffffffffffffffffff021916908373ffffffffffffffffffffffffffffffffffffffff1602179055505b60606004604051908082528060200260200182016040528015620016cb57816020015b6060815260200190600190039081620016b55790505b50905083600060048110620016dc57fe5b602002015181600081518110620016ef57fe5b6020026020010181905250836001600481106200170857fe5b6020020151816001815181106200171b57fe5b6020026020010181905250836002600481106200173457fe5b6020020151816002815181106200174757fe5b6020026020010181905250836003600481106200176057fe5b6020020151816003815181106200177357fe5b602002602001018190525062001791858285620017d360201b60201c565b9150509392505050565b8060046000848152602001908152602001600020819055505050565b8060039080519060200190620017cf9291906200228b565b5050565b60008073ffffffffffffffffffffffffffffffffffffffff16600260009054906101000a900473ffffffffffffffffffffffffffffffffffffffff1673ffffffffffffffffffffffffffffffffffffffff161480620018645750600062001862600260009054906101000a900473ffffffffffffffffffffffffffffffffffffffff166200049d60201b60201c565b145b156200187e576200187c6000620004a860201b60201c565b505b600260009054906101000a900473ffffffffffffffffffffffffffffffffffffffff1673ffffffffffffffffffffffffffffffffffffffff166338cc48316040518163ffffffff1660e01b8152600401602060405180830381600087803b158015620018e957600080fd5b505af1158015620018fe573d6000803e3d6000fd5b505050506040513d60208110156200191557600080fd5b810190808051906020019092919050505073ffffffffffffffffffffffffffffffffffffffff16600160009054906101000a900473ffffffffffffffffffffffffffffffffffffffff1673ffffffffffffffffffffffffffffffffffffffff161462001a6457600260009054906101000a900473ffffffffffffffffffffffffffffffffffffffff1673ffffffffffffffffffffffffffffffffffffffff166338cc48316040518163ffffffff1660e01b8152600401602060405180830381600087803b158015620019e657600080fd5b505af1158015620019fb573d6000803e3d6000fd5b505050506040513d602081101562001a1257600080fd5b8101908080519060200190929190505050600160006101000a81548173ffffffffffffffffffffffffffffffffffffffff021916908373ffffffffffffffffffffffffffffffffffffffff1602179055505b6000600160009054906101000a900473ffffffffffffffffffffffffffffffffffffffff1673ffffffffffffffffffffffffffffffffffffffff16632ef3accc86856040518363ffffffff1660e01b81526004018080602001838152602001828103825284818151815260200191508051906020019080838360005b8381101562001afd57808201518184015260208101905062001ae0565b50505050905090810190601f16801562001b2b5780820380516001836020036101000a031916815260200191505b509350505050602060405180830381600087803b15801562001b4c57600080fd5b505af115801562001b61573d6000803e3d6000fd5b505050506040513d602081101562001b7857600080fd5b81019080805190602001909291905050509050823a02670de0b6b3a76400000181111562001bad576000801b91505062001d64565b606062001bc08562001d6b60201b60201c565b9050600160009054906101000a900473ffffffffffffffffffffffffffffffffffffffff1673ffffffffffffffffffffffffffffffffffffffff1663c55c1cb68360008985896040518663ffffffff1660e01b8152600401808581526020018060200180602001848152602001838103835286818151815260200191508051906020019080838360005b8381101562001c6757808201518184015260208101905062001c4a565b50505050905090810190601f16801562001c955780820380516001836020036101000a031916815260200191505b50838103825285818151815260200191508051906020019080838360005b8381101562001cd057808201518184015260208101905062001cb3565b50505050905090810190601f16801562001cfe5780820380516001836020036101000a031916815260200191505b5096505050505050506020604051808303818588803b15801562001d2157600080fd5b505af115801562001d36573d6000803e3d6000fd5b50505050506040513d602081101562001d4e57600080fd5b8101908080519060200190929190505050925050505b9392505050565b606062001d7d62001e2660201b60201c565b62001d8762002312565b62001da08161040062001e3260201b620035ef1760201c565b62001db68162001e7f60201b620036391760201c565b60008090505b835181101562001e025762001df484828151811062001dd757fe5b60200260200101518362001e9560201b620036471790919060201c565b808060010191505062001dbc565b5062001e198162001ec960201b6200366c1760201c565b8060000151915050919050565b60405180590338823950565b600081905060006020828162001e4457fe5b061462001e5f576020818162001e5657fe5b06602003810190505b808360200181815250506040518084526000815281810160405250505050565b62001e9281600462001edf60201b60201c565b50565b62001eaa826002835162001f0760201b60201c565b62001ec481836200208f60201b620037db1790919060201c565b505050565b62001edc81600762001edf60201b60201c565b50565b62001f03601f60058360ff16901b17836200214f60201b620038861790919060201c565b5050565b6017811162001f3c5762001f368160058460ff16901b60ff1617846200214f60201b620038861790919060201c565b6200208a565b60ff811162001f8d5762001f69601860058460ff16901b17846200214f60201b620038861790919060201c565b62001f86816001856200219860201b620038c6179092919060201c565b5062002089565b61ffff811162001fdf5762001fbb601960058460ff16901b17846200214f60201b620038861790919060201c565b62001fd8816002856200219860201b620038c6179092919060201c565b5062002088565b63ffffffff811162002033576200200f601a60058460ff16901b17846200214f60201b620038861790919060201c565b6200202c816004856200219860201b620038c6179092919060201c565b5062002087565b67ffffffffffffffff8111620020865762002067601b60058460ff16901b17846200214f60201b620038861790919060201c565b62002084816008856200219860201b620038c6179092919060201c565b505b5b5b5b5b505050565b6200209962002312565b82602001518360000151518351011115620020da57620020d9836002620020cc866020015186516200221260201b60201c565b026200223060201b60201c565b5b60008060008451905085518051602081830101945086518101825260208701935050505b60208110620021235781518352602083019250602082019150602081039050620020fe565b60006001826020036101000a039050801983511681855116818117865250508694505050505092915050565b816020015160018360000151510111156200217e576200217d8260028460200151026200223060201b60201c565b5b815180516020818301018381536001820183525050505050565b620021a262002312565b836020015184600001515183011115620021e157620021e0846002620021d38760200151866200221260201b60201c565b026200223060201b60201c565b5b60006001836101000a0390508451805184818301018684198251161781528582018352505050849150509392505050565b60008183111562002226578290506200222a565b8190505b92915050565b6060826000015190506200224b838362001e3260201b60201c565b6200225d83826200208f60201b60201c565b50505050565b60405180608001604052806004905b6060815260200190600190039081620022725790505090565b828054600181600116156101000203166002900490600052602060002090601f016020900481019282601f10620022ce57805160ff1916838001178555620022ff565b82800160010185558215620022ff579182015b82811115620022fe578251825591602001919060010190620022e1565b5b5090506200230e91906200232c565b5090565b604051806040016040528060608152602001600081525090565b6200235191905b808211156200234d57600081600090555060010162002333565b5090565b90565b613b2780620023646000396000f3fe6080604052600436106100865760003560e01c8063bd097e2111610059578063bd097e211461034f578063cde4efa91461036d578063ce606ee014610377578063dc34b0aa146103ce578063f2fde38b146103f957610086565b806312065fe01461008b57806327dc297e146100e957806338bbfa50146101bb578063853828b614610324575b600080fd5b34801561009757600080fd5b506100a061044a565b604051808373ffffffffffffffffffffffffffffffffffffffff1673ffffffffffffffffffffffffffffffffffffffff1681526020018281526020019250505060405180910390f35b3480156100f557600080fd5b506101b96004803603604081101561010c57600080fd5b81019080803590602001909291908035906020019064010000000081111561013357600080fd5b82018360208201111561014557600080fd5b8035906020019184600183028401116401000000008311171561016757600080fd5b91908080601f016020809104026020016040519081016040528093929190818152602001838380828437600081840152601f19601f82011690508083019250505050505050919291929050505061046e565b005b3480156101c757600080fd5b50610322600480360360608110156101de57600080fd5b81019080803590602001909291908035906020019064010000000081111561020557600080fd5b82018360208201111561021757600080fd5b8035906020019184600183028401116401000000008311171561023957600080fd5b91908080601f016020809104026020016040519081016040528093929190818152602001838380828437600081840152601f19601f8201169050808301925050505050505091929192908035906020019064010000000081111561029c57600080fd5b8201836020820111156102ae57600080fd5b803590602001918460018302840111640100000000831117156102d057600080fd5b91908080601f016020809104026020016040519081016040528093929190818152602001838380828437600081840152601f19601f8201169050808301925050505050505091929192905050506104b1565b005b34801561033057600080fd5b506103396106fd565b6040518082815260200191505060405180910390f35b610357610840565b6040518082815260200191505060405180910390f35b610375610966565b005b34801561038357600080fd5b5061038c610a17565b604051808273ffffffffffffffffffffffffffffffffffffffff1673ffffffffffffffffffffffffffffffffffffffff16815260200191505060405180910390f35b3480156103da57600080fd5b506103e3610a3c565b6040518082815260200191505060405180910390f35b34801561040557600080fd5b506104486004803603602081101561041c57600080fd5b81019080803573ffffffffffffffffffffffffffffffffffffffff169060200190929190505050610a42565b005b600080303073ffffffffffffffffffffffffffffffffffffffff1631915091509091565b6104ad828260006040519080825280601f01601f1916602001820160405280156104a75781602001600182028038833980820191505090505b506104b1565b5050565b6104b9610b64565b73ffffffffffffffffffffffffffffffffffffffff163373ffffffffffffffffffffffffffffffffffffffff16146104f057600080fd5b60006104fd848484610e84565b60ff161461050a576106f8565b60006064836040516020018082805190602001908083835b602083106105455780518252602082019150602081019050602083039250610522565b6001836020036101000a0380198251168184511680821785525050505050509050019150506040516020818303038152906040528051906020012060001c8161058a57fe5b069050806006819055506000603282116105a75760009050610623565b603282106106225760019050600860009054906101000a900473ffffffffffffffffffffffffffffffffffffffff1673ffffffffffffffffffffffffffffffffffffffff166108fc6002600754029081150290604051600060405180830381858888f19350505050158015610620573d6000803e3d6000fd5b505b5b7fbc875a71d5f6713b0f6a033594a2f5e64c92f5d028465717d8ec11df609dc21b600860009054906101000a900473ffffffffffffffffffffffffffffffffffffffff1660075483604051808473ffffffffffffffffffffffffffffffffffffffff1673ffffffffffffffffffffffffffffffffffffffff16815260200183815260200182151515158152602001935050505060405180910390a17fc13d60fe9dffdb6908d2d446cd18134373a51db0738ee04f296eeb9128121cbc826040518082815260200191505060405180910390a150505b505050565b60008060009054906101000a900473ffffffffffffffffffffffffffffffffffffffff1673ffffffffffffffffffffffffffffffffffffffff163373ffffffffffffffffffffffffffffffffffffffff16146107a4576040517f08c379a000000000000000000000000000000000000000000000000000000000815260040180806020018281038252602e815260200180613a53602e913960400191505060405180910390fd5b3373ffffffffffffffffffffffffffffffffffffffff166108fc3073ffffffffffffffffffffffffffffffffffffffff16319081150290604051600060405180830381858888f19350505050158015610801573d6000803e3d6000fd5b5060003073ffffffffffffffffffffffffffffffffffffffff16311461082357fe5b3073ffffffffffffffffffffffffffffffffffffffff1631905090565b60008060009054906101000a900473ffffffffffffffffffffffffffffffffffffffff1673ffffffffffffffffffffffffffffffffffffffff163373ffffffffffffffffffffffffffffffffffffffff16146108e7576040517f08c379a000000000000000000000000000000000000000000000000000000000815260040180806020018281038252602e815260200180613a53602e913960400191505060405180910390fd5b60003414156108f557600080fd5b7fed7d0ddcc17abdb3935a0a23cd93e91b449dfeac7fd0def9f481ed5b37e18c4d3334604051808373ffffffffffffffffffffffffffffffffffffffff1673ffffffffffffffffffffffffffffffffffffffff1681526020018281526020019250505060405180910390a134905090565b3460078190555033600860006101000a81548173ffffffffffffffffffffffffffffffffffffffff021916908373ffffffffffffffffffffffffffffffffffffffff1602179055506000809050600062030d4090506109c782600183610fb4565b507fc4dc360d0a9c0677a3379ae0a3d81e887f761e65fdf3d7e00859d1bcd3c47389604051808060200182810382526032815260200180613a816032913960400191505060405180910390a15050565b6000809054906101000a900473ffffffffffffffffffffffffffffffffffffffff1681565b60065481565b6000809054906101000a900473ffffffffffffffffffffffffffffffffffffffff1673ffffffffffffffffffffffffffffffffffffffff163373ffffffffffffffffffffffffffffffffffffffff1614610ae7576040517f08c379a000000000000000000000000000000000000000000000000000000000815260040180806020018281038252602e815260200180613a53602e913960400191505060405180910390fd5b600073ffffffffffffffffffffffffffffffffffffffff168173ffffffffffffffffffffffffffffffffffffffff161415610b2157600080fd5b806000806101000a81548173ffffffffffffffffffffffffffffffffffffffff021916908373ffffffffffffffffffffffffffffffffffffffff16021790555050565b60008073ffffffffffffffffffffffffffffffffffffffff16600260009054906101000a900473ffffffffffffffffffffffffffffffffffffffff1673ffffffffffffffffffffffffffffffffffffffff161480610bec57506000610bea600260009054906101000a900473ffffffffffffffffffffffffffffffffffffffff1661154f565b145b15610bfd57610bfb600061155a565b505b600260009054906101000a900473ffffffffffffffffffffffffffffffffffffffff1673ffffffffffffffffffffffffffffffffffffffff166338cc48316040518163ffffffff1660e01b8152600401602060405180830381600087803b158015610c6757600080fd5b505af1158015610c7b573d6000803e3d6000fd5b505050506040513d6020811015610c9157600080fd5b810190808051906020019092919050505073ffffffffffffffffffffffffffffffffffffffff16600160009054906101000a900473ffffffffffffffffffffffffffffffffffffffff1673ffffffffffffffffffffffffffffffffffffffff1614610ddc57600260009054906101000a900473ffffffffffffffffffffffffffffffffffffffff1673ffffffffffffffffffffffffffffffffffffffff166338cc48316040518163ffffffff1660e01b8152600401602060405180830381600087803b158015610d6057600080fd5b505af1158015610d74573d6000803e3d6000fd5b505050506040513d6020811015610d8a57600080fd5b8101908080519060200190929190505050600160006101000a81548173ffffffffffffffffffffffffffffffffffffffff021916908373ffffffffffffffffffffffffffffffffffffffff1602179055505b600160009054906101000a900473ffffffffffffffffffffffffffffffffffffffff1673ffffffffffffffffffffffffffffffffffffffff1663c281d19e6040518163ffffffff1660e01b815260040160206040518083038186803b158015610e4457600080fd5b505afa158015610e58573d6000803e3d6000fd5b505050506040513d6020811015610e6e57600080fd5b8101908080519060200190929190505050905090565b60007f4c0000000000000000000000000000000000000000000000000000000000000082600081518110610eb457fe5b602001015160f81c60f81b7effffffffffffffffffffffffffffffffffffffffffffffffffffffffffffff1916141580610f4757507f500000000000000000000000000000000000000000000000000000000000000082600181518110610f1757fe5b602001015160f81c60f81b7effffffffffffffffffffffffffffffffffffffffffffffffffffffffffffff191614155b80610f735750600160ff1682600281518110610f5f57fe5b602001015160f81c60f81b60f81c60ff1614155b15610f815760019050610fad565b6000610f96838686610f9161156b565b61160d565b905080610fa7576002915050610fad565b60009150505b9392505050565b60008083118015610fc6575060208311155b610fcf57600080fd5b600a84029350606060016040519080825280601f01601f19166020018201604052801561100b5781602001600182028038833980820191505090505b5090508360f81b8160008151811061101f57fe5b60200101907effffffffffffffffffffffffffffffffffffffffffffffffffffffffffffff1916908160001a905350606060206040519080825280601f01601f1916602001820160405280156110845781602001600182028038833980820191505090505b509050606060206040519080825280601f01601f1916602001820160405280156110bd5781602001600182028038833980820191505090505b50905060006110ca611cb8565b905060208352424118600143034018602084015260208252806020830152606060206040519080825280601f01601f19166020018201604052801561111e5781602001600182028038833980820191505090505b509050886020820152606060086040519080825280601f01601f19166020018201604052801561115d5781602001600182028038833980820191505090505b5090506111708260186008846000611fd8565b5061117961396c565b604051806080016040528087815260200188815260200186815260200184815250905060006111de6040518060400160405280600681526020017f72616e646f6d0000000000000000000000000000000000000000000000000000815250838c612037565b9050606060086040519080825280601f01601f1916602001820160405280156112165781602001600182028038833980820191505090505b50905060208401517f0100000000000000000000000000000000000000000000000000000000000000810460278301537e01000000000000000000000000000000000000000000000000000000000000810460268301537d010000000000000000000000000000000000000000000000000000000000810460258301537c0100000000000000000000000000000000000000000000000000000000810460248301537b01000000000000000000000000000000000000000000000000000000810460238301537a01000000000000000000000000000000000000000000000000000081046022830153790100000000000000000000000000000000000000000000000000810460218301537801000000000000000000000000000000000000000000000000810460208301535061153c82828560016004811061135557fe5b602002015160028760006004811061136957fe5b60200201516040518082805190602001908083835b602083106113a1578051825260208201915060208101905060208303925061137e565b6001836020036101000a038019825116818451168082178552505050505050905001915050602060405180830381855afa1580156113e3573d6000803e3d6000fd5b5050506040513d60208110156113f857600080fd5b81019080805190602001909291905050508760026004811061141657fe5b60200201516040516020018085805190602001908083835b60208310611451578051825260208201915060208101905060208303925061142e565b6001836020036101000a03801982511681845116808217855250505050505090500184805190602001908083835b602083106114a2578051825260208201915060208101905060208303925061147f565b6001836020036101000a03801982511681845116808217855250505050505090500183815260200182805190602001908083835b602083106114f957805182526020820191506020810190506020830392506114d6565b6001836020036101000a038019825116818451168082178552505050505050905001945050505050604051602081830303815290604052805190602001206123a6565b8199505050505050505050509392505050565b6000813b9050919050565b60006115646123c2565b9050919050565b606060038054600181600116156101000203166002900480601f0160208091040260200160405190810160405280929190818152602001828054600181600116156101000203166002900480156116035780601f106115d857610100808354040283529160200191611603565b820191906000526020600020905b8154815290600101906020018083116115e657829003601f168201915b5050505050905090565b600080602060028760458151811061162157fe5b602001015160f81c60f81b60f81c60ff1601604401019050606060206040519080825280601f01601f19166020018201604052801561166f5781602001600182028038833980820191505090505b50905061168187836020846000611fd8565b50600284876040516020018083805190602001908083835b602083106116bc5780518252602082019150602081019050602083039250611699565b6001836020036101000a038019825116818451168082178552505050505050905001828152602001925050506040516020818303038152906040526040518082805190602001908083835b6020831061172a5780518252602082019150602081019050602083039250611707565b6001836020036101000a038019825116818451168082178552505050505050905001915050602060405180830381855afa15801561176c573d6000803e3d6000fd5b5050506040513d602081101561178157600080fd5b810190808051906020019092919050505060405160200180828152602001915050604051602081830303815290604052805190602001208180519060200120146117d057600092505050611cb0565b606060028860016049860101815181106117e657fe5b602001015160f81c60f81b60f81c60ff16016040519080825280601f01601f19166020018201604052801561182a5781602001600182028038833980820191505090505b50905061183f88604985018351846000611fd8565b5061190a6002826040518082805190602001908083835b602083106118795780518252602082019150602081019050602083039250611856565b6001836020036101000a038019825116818451168082178552505050505050905001915050602060405180830381855afa1580156118bb573d6000803e3d6000fd5b5050506040513d60208110156118d057600080fd5b8101908080519060200190929190505050878a60086020880101815181106118f457fe5b602001015160f81c60f81b60f81c60ff16612919565b61191a5760009350505050611cb0565b606060296040519080825280601f01601f1916602001820160405280156119505781602001600182028038833980820191505090505b50905061196589602086016029846000611fd8565b506060604080519080825280601f01601f19166020018201604052801561199b5781602001600182028038833980820191505090505b50905060006041845160296020890101010190506119c18b604083036040856000611fd8565b5060006002836040518082805190602001908083835b602083106119fa57805182526020820191506020810190506020830392506119d7565b6001836020036101000a038019825116818451168082178552505050505050905001915050602060405180830381855afa158015611a3c573d6000803e3d6000fd5b5050506040513d6020811015611a5157600080fd5b8101908080519060200190929190505050905083816040516020018083805190602001908083835b60208310611a9c5780518252602082019150602081019050602083039250611a79565b6001836020036101000a0380198251168184511680821785525050505050509050018281526020019250505060405160208183030381529060405280519060200120600460008d8152602001908152602001600020541415611b1457600460008c815260200190815260200160002060009055611b24565b6000975050505050505050611cb0565b606060496040519080825280601f01601f191660200182016040528015611b5a5781602001600182028038833980820191505090505b509050611b6c8d896049846000611fd8565b50611c156002826040518082805190602001908083835b60208310611ba65780518252602082019150602081019050602083039250611b83565b6001836020036101000a038019825116818451168082178552505050505050905001915050602060405180830381855afa158015611be8573d6000803e3d6000fd5b5050506040513d6020811015611bfd57600080fd5b810190808051906020019092919050505087866129c9565b611c2a57600098505050505050505050611cb0565b6005600083815260200190815260200160002060009054906101000a900460ff16611c8457611c598d84612b87565b6005600084815260200190815260200160002060006101000a81548160ff0219169083151502179055505b6005600083815260200190815260200160002060009054906101000a900460ff16985050505050505050505b949350505050565b60008073ffffffffffffffffffffffffffffffffffffffff16600260009054906101000a900473ffffffffffffffffffffffffffffffffffffffff1673ffffffffffffffffffffffffffffffffffffffff161480611d4057506000611d3e600260009054906101000a900473ffffffffffffffffffffffffffffffffffffffff1661154f565b145b15611d5157611d4f600061155a565b505b600260009054906101000a900473ffffffffffffffffffffffffffffffffffffffff1673ffffffffffffffffffffffffffffffffffffffff166338cc48316040518163ffffffff1660e01b8152600401602060405180830381600087803b158015611dbb57600080fd5b505af1158015611dcf573d6000803e3d6000fd5b505050506040513d6020811015611de557600080fd5b810190808051906020019092919050505073ffffffffffffffffffffffffffffffffffffffff16600160009054906101000a900473ffffffffffffffffffffffffffffffffffffffff1673ffffffffffffffffffffffffffffffffffffffff1614611f3057600260009054906101000a900473ffffffffffffffffffffffffffffffffffffffff1673ffffffffffffffffffffffffffffffffffffffff166338cc48316040518163ffffffff1660e01b8152600401602060405180830381600087803b158015611eb457600080fd5b505af1158015611ec8573d6000803e3d6000fd5b505050506040513d6020811015611ede57600080fd5b8101908080519060200190929190505050600160006101000a81548173ffffffffffffffffffffffffffffffffffffffff021916908373ffffffffffffffffffffffffffffffffffffffff1602179055505b600160009054906101000a900473ffffffffffffffffffffffffffffffffffffffff1673ffffffffffffffffffffffffffffffffffffffff1663abaa5f3e6040518163ffffffff1660e01b815260040160206040518083038186803b158015611f9857600080fd5b505afa158015611fac573d6000803e3d6000fd5b505050506040513d6020811015611fc257600080fd5b8101908080519060200190929190505050905090565b6060600082850190508084511015611fef57600080fd5b600086602001905060008460200190505b8688602001018210156120285781890151808288015250602082019150602081019050612000565b85935050505095945050505050565b60008073ffffffffffffffffffffffffffffffffffffffff16600260009054906101000a900473ffffffffffffffffffffffffffffffffffffffff1673ffffffffffffffffffffffffffffffffffffffff1614806120bf575060006120bd600260009054906101000a900473ffffffffffffffffffffffffffffffffffffffff1661154f565b145b156120d0576120ce600061155a565b505b600260009054906101000a900473ffffffffffffffffffffffffffffffffffffffff1673ffffffffffffffffffffffffffffffffffffffff166338cc48316040518163ffffffff1660e01b8152600401602060405180830381600087803b15801561213a57600080fd5b505af115801561214e573d6000803e3d6000fd5b505050506040513d602081101561216457600080fd5b810190808051906020019092919050505073ffffffffffffffffffffffffffffffffffffffff16600160009054906101000a900473ffffffffffffffffffffffffffffffffffffffff1673ffffffffffffffffffffffffffffffffffffffff16146122af57600260009054906101000a900473ffffffffffffffffffffffffffffffffffffffff1673ffffffffffffffffffffffffffffffffffffffff166338cc48316040518163ffffffff1660e01b8152600401602060405180830381600087803b15801561223357600080fd5b505af1158015612247573d6000803e3d6000fd5b505050506040513d602081101561225d57600080fd5b8101908080519060200190929190505050600160006101000a81548173ffffffffffffffffffffffffffffffffffffffff021916908373ffffffffffffffffffffffffffffffffffffffff1602179055505b606060046040519080825280602002602001820160405280156122e657816020015b60608152602001906001900390816122d15790505b509050836000600481106122f657fe5b60200201518160008151811061230857fe5b60200260200101819052508360016004811061232057fe5b60200201518160018151811061233257fe5b60200260200101819052508360026004811061234a57fe5b60200201518160028151811061235c57fe5b60200260200101819052508360036004811061237457fe5b60200201518160038151811061238657fe5b602002602001018190525061239c858285612f9f565b9150509392505050565b8060046000848152602001908152602001600020819055505050565b6000806123e2731d3b2638a7cc9f2cb3d298a3da7a90b67e5506ed61154f565b111561248457731d3b2638a7cc9f2cb3d298a3da7a90b67e5506ed600260006101000a81548173ffffffffffffffffffffffffffffffffffffffff021916908373ffffffffffffffffffffffffffffffffffffffff16021790555061247b6040518060400160405280600b81526020017f6574685f6d61696e6e6574000000000000000000000000000000000000000000815250613505565b60019050612916565b60006124a373c03a2615d5efaf5f49f60b7bb6583eaec212fdf161154f565b11156125455773c03a2615d5efaf5f49f60b7bb6583eaec212fdf1600260006101000a81548173ffffffffffffffffffffffffffffffffffffffff021916908373ffffffffffffffffffffffffffffffffffffffff16021790555061253c6040518060400160405280600c81526020017f6574685f726f707374656e330000000000000000000000000000000000000000815250613505565b60019050612916565b600061256473b7a07bcf2ba2f2703b24c0691b5278999c59ac7e61154f565b11156126065773b7a07bcf2ba2f2703b24c0691b5278999c59ac7e600260006101000a81548173ffffffffffffffffffffffffffffffffffffffff021916908373ffffffffffffffffffffffffffffffffffffffff1602179055506125fd6040518060400160405280600981526020017f6574685f6b6f76616e0000000000000000000000000000000000000000000000815250613505565b60019050612916565b600061262573146500cfd35b22e4a392fe0adc06de1a1368ed4861154f565b11156126c75773146500cfd35b22e4a392fe0adc06de1a1368ed48600260006101000a81548173ffffffffffffffffffffffffffffffffffffffff021916908373ffffffffffffffffffffffffffffffffffffffff1602179055506126be6040518060400160405280600b81526020017f6574685f72696e6b656279000000000000000000000000000000000000000000815250613505565b60019050612916565b60006126e673a2998efd205fb9d4b4963afb70778d6354ad3a4161154f565b11156127885773a2998efd205fb9d4b4963afb70778d6354ad3a41600260006101000a81548173ffffffffffffffffffffffffffffffffffffffff021916908373ffffffffffffffffffffffffffffffffffffffff16021790555061277f6040518060400160405280600a81526020017f6574685f676f65726c6900000000000000000000000000000000000000000000815250613505565b60019050612916565b60006127a7736f485c8bf6fc43ea212e93bbf8ce046c7f1cb47561154f565b111561280b57736f485c8bf6fc43ea212e93bbf8ce046c7f1cb475600260006101000a81548173ffffffffffffffffffffffffffffffffffffffff021916908373ffffffffffffffffffffffffffffffffffffffff16021790555060019050612916565b600061282a7320e12a1f859b3feae5fb2a0a32c18f5a65555bbf61154f565b111561288e577320e12a1f859b3feae5fb2a0a32c18f5a65555bbf600260006101000a81548173ffffffffffffffffffffffffffffffffffffffff021916908373ffffffffffffffffffffffffffffffffffffffff16021790555060019050612916565b60006128ad7351efaf4c8b3c9afbd5ab9f4bbc82784ab6ef8faa61154f565b1115612911577351efaf4c8b3c9afbd5ab9f4bbc82784ab6ef8faa600260006101000a81548173ffffffffffffffffffffffffffffffffffffffff021916908373ffffffffffffffffffffffffffffffffffffffff16021790555060019050612916565b600090505b90565b600080600190508284511461292d57600080fd5b60008090505b838110156129bd5784818151811061294757fe5b602001015160f81c60f81b7effffffffffffffffffffffffffffffffffffffffffffffffffffffffffffff191686826020811061298057fe5b1a60f81b7effffffffffffffffffffffffffffffffffffffffffffffffffffffffffffff1916146129b057600091505b8080600101915050612933565b50809150509392505050565b6000806000806000606060206040519080825280601f01601f191660200182016040528015612a075781602001600182028038833980820191505090505b5090506000602089600381518110612a1b57fe5b602001015160f81c60f81b60f81c60ff16036004019050612a4189826020856000611fd8565b9150606060206040519080825280601f01601f191660200182016040528015612a795781602001600182028038833980820191505090505b509050602282019150612ab58a60208c6001860381518110612a9757fe5b602001015160f81c60f81b60f81c60ff160384016020846000611fd8565b90506020830151945060208101519350612ad28b601b878761351f565b80975081985050508573ffffffffffffffffffffffffffffffffffffffff16898051906020012060001c73ffffffffffffffffffffffffffffffffffffffff161415612b28576001975050505050505050612b80565b612b358b601c878761351f565b80975081985050508573ffffffffffffffffffffffffffffffffffffffff16898051906020012060001c73ffffffffffffffffffffffffffffffffffffffff16149750505050505050505b9392505050565b60008060606002856001860181518110612b9d57fe5b602001015160f81c60f81b60f81c60ff16016040519080825280601f01601f191660200182016040528015612be15781602001600182028038833980820191505090505b509050612bf385858351846000611fd8565b506060604080519080825280601f01601f191660200182016040528015612c295781602001600182028038833980820191505090505b509050612c3c8660046040846000611fd8565b50606060626040519080825280601f01601f191660200182016040528015612c735781602001600182028038833980820191505090505b509050600160f81b81600081518110612c8857fe5b60200101907effffffffffffffffffffffffffffffffffffffffffffffffffffffffffffff1916908160001a905350612cc987604188036041846001611fd8565b5060606040518060400160405280602081526020017ffd94fa71bc0ba10d39d464d0d8f465efeef0a2764e3887fcc9df41ded20f505c8152509050612d148160006020856042611fd8565b50612dbd6002836040518082805190602001908083835b60208310612d4e5780518252602082019150602081019050602083039250612d2b565b6001836020036101000a038019825116818451168082178552505050505050905001915050602060405180830381855afa158015612d90573d6000803e3d6000fd5b5050506040513d6020811015612da557600080fd5b810190808051906020019092919050505085856129c9565b945084612dd257600095505050505050612f99565b6060604051806060016040528060408152602001613ab3604091399050606060426040519080825280601f01601f191660200182016040528015612e255781602001600182028038833980820191505090505b50905060fe60f81b81600081518110612e3a57fe5b60200101907effffffffffffffffffffffffffffffffffffffffffffffffffffffffffffff1916908160001a905350612e798a60036041846001611fd8565b50606060028b604581518110612e8b57fe5b602001015160f81c60f81b60f81c60ff16016040519080825280601f01601f191660200182016040528015612ecf5781602001600182028038833980820191505090505b509050612ee28b60448351846000611fd8565b50612f8b6002836040518082805190602001908083835b60208310612f1c5780518252602082019150602081019050602083039250612ef9565b6001836020036101000a038019825116818451168082178552505050505050905001915050602060405180830381855afa158015612f5e573d6000803e3d6000fd5b5050506040513d6020811015612f7357600080fd5b810190808051906020019092919050505082856129c9565b975087985050505050505050505b92915050565b60008073ffffffffffffffffffffffffffffffffffffffff16600260009054906101000a900473ffffffffffffffffffffffffffffffffffffffff1673ffffffffffffffffffffffffffffffffffffffff16148061302757506000613025600260009054906101000a900473ffffffffffffffffffffffffffffffffffffffff1661154f565b145b1561303857613036600061155a565b505b600260009054906101000a900473ffffffffffffffffffffffffffffffffffffffff1673ffffffffffffffffffffffffffffffffffffffff166338cc48316040518163ffffffff1660e01b8152600401602060405180830381600087803b1580156130a257600080fd5b505af11580156130b6573d6000803e3d6000fd5b505050506040513d60208110156130cc57600080fd5b810190808051906020019092919050505073ffffffffffffffffffffffffffffffffffffffff16600160009054906101000a900473ffffffffffffffffffffffffffffffffffffffff1673ffffffffffffffffffffffffffffffffffffffff161461321757600260009054906101000a900473ffffffffffffffffffffffffffffffffffffffff1673ffffffffffffffffffffffffffffffffffffffff166338cc48316040518163ffffffff1660e01b8152600401602060405180830381600087803b15801561319b57600080fd5b505af11580156131af573d6000803e3d6000fd5b505050506040513d60208110156131c557600080fd5b8101908080519060200190929190505050600160006101000a81548173ffffffffffffffffffffffffffffffffffffffff021916908373ffffffffffffffffffffffffffffffffffffffff1602179055505b6000600160009054906101000a900473ffffffffffffffffffffffffffffffffffffffff1673ffffffffffffffffffffffffffffffffffffffff16632ef3accc86856040518363ffffffff1660e01b81526004018080602001838152602001828103825284818151815260200191508051906020019080838360005b838110156132ae578082015181840152602081019050613293565b50505050905090810190601f1680156132db5780820380516001836020036101000a031916815260200191505b509350505050602060405180830381600087803b1580156132fb57600080fd5b505af115801561330f573d6000803e3d6000fd5b505050506040513d602081101561332557600080fd5b81019080805190602001909291905050509050823a02670de0b6b3a764000001811115613358576000801b9150506134fe565b606061336385613563565b9050600160009054906101000a900473ffffffffffffffffffffffffffffffffffffffff1673ffffffffffffffffffffffffffffffffffffffff1663c55c1cb68360008985896040518663ffffffff1660e01b8152600401808581526020018060200180602001848152602001838103835286818151815260200191508051906020019080838360005b838110156134085780820151818401526020810190506133ed565b50505050905090810190601f1680156134355780820380516001836020036101000a031916815260200191505b50838103825285818151815260200191508051906020019080838360005b8381101561346e578082015181840152602081019050613453565b50505050905090810190601f16801561349b5780820380516001836020036101000a031916815260200191505b5096505050505050506020604051808303818588803b1580156134bd57600080fd5b505af11580156134d1573d6000803e3d6000fd5b50505050506040513d60208110156134e857600080fd5b8101908080519060200190929190505050925050505b9392505050565b806003908051906020019061351b929190613993565b5050565b60008060008060405188815287602082015286604082015285606082015260208160808360006001610bb8f192508051915050818193509350505094509492505050565b606061356d6135e3565b613575613a13565b613581816104006135ef565b61358a81613639565b60008090505b83518110156135cc576135bf8482815181106135a857fe5b60200260200101518361364790919063ffffffff16565b8080600101915050613590565b506135d68161366c565b8060000151915050919050565b60405180590338823950565b600081905060006020828161360057fe5b0614613619576020818161361057fe5b06602003810190505b808360200181815250506040518084526000815281810160405250505050565b61364481600461367a565b50565b613654826002835161369b565b61366781836137db90919063ffffffff16565b505050565b61367781600761367a565b50565b613697601f60058360ff16901b178361388690919063ffffffff16565b5050565b601781116136c7576136c28160058460ff16901b60ff16178461388690919063ffffffff16565b6137d6565b60ff8111613708576136ec601860058460ff16901b178461388690919063ffffffff16565b613702816001856138c69092919063ffffffff16565b506137d5565b61ffff811161374a5761372e601960058460ff16901b178461388690919063ffffffff16565b613744816002856138c69092919063ffffffff16565b506137d4565b63ffffffff811161378e57613772601a60058460ff16901b178461388690919063ffffffff16565b613788816004856138c69092919063ffffffff16565b506137d3565b67ffffffffffffffff81116137d2576137ba601b60058460ff16901b178461388690919063ffffffff16565b6137d0816008856138c69092919063ffffffff16565b505b5b5b5b5b505050565b6137e3613a13565b826020015183600001515183510111156138135761381283600261380c8660200151865161392d565b02613949565b5b60008060008451905085518051602081830101945086518101825260208701935050505b6020811061385a5781518352602083019250602082019150602081039050613837565b60006001826020036101000a039050801983511681855116818117865250508694505050505092915050565b816020015160018360000151510111156138ac576138ab826002846020015102613949565b5b815180516020818301018381536001820183525050505050565b6138ce613a13565b8360200151846000015151830111156138fc576138fb8460026138f587602001518661392d565b02613949565b5b60006001836101000a0390508451805184818301018684198251161781528582018352505050849150509392505050565b60008183111561393f57829050613943565b8190505b92915050565b60608260000151905061395c83836135ef565b61396683826137db565b50505050565b60405180608001604052806004905b606081526020019060019003908161397b5790505090565b828054600181600116156101000203166002900490600052602060002090601f016020900481019282601f106139d457805160ff1916838001178555613a02565b82800160010185558215613a02579182015b82811115613a015782518255916020019190600101906139e6565b5b509050613a0f9190613a2d565b5090565b604051806040016040528060608152602001600081525090565b613a4f91905b80821115613a4b576000816000905550600101613a33565b5090565b9056fe596f7520617265206e6f7420656e7469746c656420746f206578656375746520746869732066756e6374696f6e2e50726f7661626c65207175657279207761732073656e742c207374616e64696e6720627920666f7220616e737765722e2e2e7fb956469c5c9b89840d55b43537e66a98dd4811ea0a27224272c2e5622911e8537a2f8e86a46baec82864e98dd01e9ccc2f8bc5dfc9cbe5a91a290498dd96e4a265627a7a7231582018a25e09dc516ea35dfa400875c7797783941ef8207584bdbcba92bf6ac2cb7664736f6c634300050c003250726f7661626c65207175657279207761732073656e742c207374616e64696e6720627920666f7220616e737765722e2e2e",
  "source": "import\"./Ownable.sol\";\r\nimport\"./provableAPI.sol\";\r\n\r\npragma solidity 0.5.12;\r\n\r\ncontract FlipContract is Ownable, usingProvable {\r\n\r\n    uint256 constant NUM_RANDOM_BYTES_REQUESTED = 1;    //Why unit256? Isn't uint8 enought?\r\n    uint256 public latestNumber;                        //Why unit256? Isn't uint8 enought?\r\n    uint bet;\r\n    address payable player;\r\n\r\n    event betTaken(address user, uint bet, bool);\r\n    event funded(address contractOwner, uint funding);\r\n    event LogNewProvableQuery(string description);\r\n    event generatedRandomNumber(uint256 randomNumber);\r\n\r\n    constructor() public {\r\n        provable_setProof(proofType_Ledger);\r\n        flip();                                       //Update to new random number\r\n    }\r\n\r\n    modifier costs(uint cost){\r\n        require(msg.value >= cost, \"The minimum bet is 0.01 Ether\");\r\n        _;\r\n    }\r\n    function __callback(bytes32 _queryId, string memory _result, bytes memory _proof) public {\r\n        require(msg.sender == provable_cbAddress());\r\n\r\n        if (provable_randomDS_proofVerify__returnCode(_queryId, _result, _proof) != 0) {\r\n            /**\r\n             * @notice  The proof verification has failed! Handle this case\r\n             *          however you see fit.\r\n             */\r\n        }\r\n        else {\r\n            /**\r\n             *\r\n             * @notice  The proof verifiction has passed!\r\n             *\r\n             *          Let's convert the random bytes received from the query\r\n             *          to a `uint256`.\r\n             *\r\n             *          To do so, We define the variable `ceiling`, where\r\n             *          `ceiling - 1` is the highest `uint256` we want to get.\r\n             *          The variable `ceiling` should never be greater than:\r\n             *          `(MAX_INT_FROM_BYTE ^ NUM_RANDOM_BYTES_REQUESTED) - 1`.\r\n             *\r\n             *          By hashing the random bytes and casting them to a\r\n             *          `uint256` we can then modulo that number by our ceiling\r\n             *          in order to get a random number within the desired\r\n             *          range of [0, ceiling - 1].\r\n             *\r\n             */\r\n            // ceiling = (MAX_INT_FROM_BYTE ** NUM_RANDOM_BYTES_REQUESTED) - 1;\r\n            uint256 randomNumber = uint256(keccak256(abi.encodePacked(_result))) % 100;\r\n            latestNumber = randomNumber;\r\n            bool success;\r\n\r\n            if(randomNumber <= 50){\r\n                success = false;\r\n                //ContractBalance += msg.value;\r\n                //success = false;\r\n            }\r\n            else if(randomNumber >= 50){\r\n                success = true;\r\n                //ContractBalance -= msg.value;\r\n                player.transfer(bet * 2);\r\n                //success = true;\r\n            }\r\n            //assert(ContractBalance == address(this).balance);\r\n            emit betTaken(player, bet, success);\r\n            //return success;\r\n            emit generatedRandomNumber(randomNumber);\r\n        }\r\n    }\r\n    // Function to simulate coin flip 50/50 randomnes\r\n    function flip() public payable {\r\n        //require(msg.value <= address(this).balance / 2, \"Jackpot is the max bet you can make\");\r\n\r\n        bet = msg.value;\r\n        player = msg.sender;\r\n\r\n        uint256 QUERY_EXECUTION_DELAY = 0;      //config: execution delay (0 for no delay)\r\n        uint256 GAS_FOR_CALLBACK = 200000;      //config: gas fee for calling __callback function (200000 is standard)\r\n        provable_newRandomDSQuery(QUERY_EXECUTION_DELAY, NUM_RANDOM_BYTES_REQUESTED, GAS_FOR_CALLBACK);     //function to query a random number, it will call the __callback function\r\n        emit LogNewProvableQuery(\"Provable query was sent, standing by for answer...\");\r\n    }\r\n\r\n/*    // Function to simulate coin flip 50/50 randomnes\r\n    function flip() public payable returns(bool){\r\n        //require(address(this).balance >= msg.value, \"The contract hasn't enought funds\");\r\n        bool success;\r\n        if(now % 2 == 0){\r\n            ContractBalance += msg.value;\r\n            success = false;\r\n        }\r\n        else if(now % 2 == 1){\r\n            ContractBalance -= msg.value;\r\n            msg.sender.transfer(msg.value * 2);\r\n            success = true;\r\n        }\r\n        //assert(ContractBalance == address(this).balance);\r\n        emit betTaken(msg.sender, msg.value, success);\r\n        return success;\r\n    }\r\n*/\r\n    // Function to Withdraw Funds\r\n    function withdrawAll() public onlyContractOwner returns(uint){\r\n        msg.sender.transfer(address(this).balance);\r\n        assert(address(this).balance == 0);\r\n        return address(this).balance;\r\n    }\r\n    // Function to get the Balance of the Contract\r\n    function getBalance() public view returns (address, uint) {\r\n        return (address(this), address(this).balance);\r\n    }\r\n    // Fund the Contract\r\n    function fundContract() public payable onlyContractOwner returns(uint){\r\n        require(msg.value != 0);\r\n        //ContractBalance += msg.value;\r\n        emit funded(msg.sender, msg.value);\r\n        //assert(ContractBalance == address(this).balance);\r\n        return msg.value;\r\n    }\r\n\r\n}",
  "sourcePath": "C:/Users/pault/OneDrive/GitHub/BetFlipDApp/contracts/FlipContract.sol",
  "compiler": {
    "name": "solc",
    "version": "0.5.12+commit.7709ece9.Emscripten.clang"
  },
  "schemaVersion": "3.0.16",
  "updatedAt": "2020-01-02T10:04:22.328Z",
  "devdoc": {
    "methods": {
      "__callback(bytes32,string)": {
        "details": "The following `__callback` functions are just placeholders ideally     meant to be defined in child contract when proofs are used.     The function bodies simply silence compiler warnings."
      }
    }
  },
  "userdoc": {
    "methods": {}
  }
}