{
  "contractName": "FlipContract",
  "abi": [
    {
      "inputs": [],
      "payable": false,
      "stateMutability": "nonpayable",
      "type": "constructor"
    },
    {
      "anonymous": false,
      "inputs": [
        {
          "indexed": false,
          "internalType": "string",
          "name": "description",
          "type": "string"
        }
      ],
      "name": "LogNewProvableQuery",
      "type": "event"
    },
    {
      "anonymous": false,
      "inputs": [
        {
          "indexed": false,
          "internalType": "address",
          "name": "player",
          "type": "address"
        },
        {
          "indexed": false,
          "internalType": "uint256",
          "name": "value",
          "type": "uint256"
        },
        {
          "indexed": false,
          "internalType": "bool",
          "name": "result",
          "type": "bool"
        }
      ],
      "name": "betTaken",
      "type": "event"
    },
    {
      "anonymous": false,
      "inputs": [
        {
          "indexed": false,
          "internalType": "address",
          "name": "contractOwner",
          "type": "address"
        },
        {
          "indexed": false,
          "internalType": "uint256",
          "name": "funding",
          "type": "uint256"
        }
      ],
      "name": "funded",
      "type": "event"
    },
    {
      "anonymous": false,
      "inputs": [
        {
          "indexed": false,
          "internalType": "uint256",
          "name": "randomNumber",
          "type": "uint256"
        }
      ],
      "name": "generatedRandomNumber",
      "type": "event"
    },
    {
      "constant": true,
      "inputs": [
        {
          "internalType": "bytes32",
          "name": "",
          "type": "bytes32"
        }
      ],
      "name": "betting",
      "outputs": [
        {
          "internalType": "address payable",
          "name": "player",
          "type": "address"
        },
        {
          "internalType": "uint256",
          "name": "value",
          "type": "uint256"
        },
        {
          "internalType": "bool",
          "name": "result",
          "type": "bool"
        }
      ],
      "payable": false,
      "stateMutability": "view",
      "type": "function"
    },
    {
      "constant": true,
      "inputs": [],
      "name": "contractOwner",
      "outputs": [
        {
          "internalType": "address",
          "name": "",
          "type": "address"
        }
      ],
      "payable": false,
      "stateMutability": "view",
      "type": "function"
    },
    {
      "constant": false,
      "inputs": [
        {
          "internalType": "address",
          "name": "newOwner",
          "type": "address"
        }
      ],
      "name": "transferOwnership",
      "outputs": [],
      "payable": false,
      "stateMutability": "nonpayable",
      "type": "function"
    },
    {
      "constant": true,
      "inputs": [
        {
          "internalType": "address",
          "name": "",
          "type": "address"
        }
      ],
      "name": "waiting",
      "outputs": [
        {
          "internalType": "bool",
          "name": "",
          "type": "bool"
        }
      ],
      "payable": false,
      "stateMutability": "view",
      "type": "function"
    },
    {
      "constant": false,
      "inputs": [
        {
          "internalType": "bytes32",
          "name": "_myid",
          "type": "bytes32"
        },
        {
          "internalType": "string",
          "name": "_result",
          "type": "string"
        }
      ],
      "name": "__callback",
      "outputs": [],
      "payable": false,
      "stateMutability": "nonpayable",
      "type": "function"
    },
    {
      "constant": false,
      "inputs": [
        {
          "internalType": "bytes32",
          "name": "_queryId",
          "type": "bytes32"
        },
        {
          "internalType": "string",
          "name": "_result",
          "type": "string"
        },
        {
          "internalType": "bytes",
          "name": "_proof",
          "type": "bytes"
        }
      ],
      "name": "__callback",
      "outputs": [],
      "payable": false,
      "stateMutability": "nonpayable",
      "type": "function"
    },
    {
      "constant": false,
      "inputs": [],
      "name": "flip",
      "outputs": [],
      "payable": true,
      "stateMutability": "payable",
      "type": "function"
    },
    {
      "constant": false,
      "inputs": [],
      "name": "withdrawAll",
      "outputs": [
        {
          "internalType": "uint256",
          "name": "",
          "type": "uint256"
        }
      ],
      "payable": false,
      "stateMutability": "nonpayable",
      "type": "function"
    },
    {
      "constant": true,
      "inputs": [],
      "name": "getContractBalance",
      "outputs": [
        {
          "internalType": "uint256",
          "name": "",
          "type": "uint256"
        }
      ],
      "payable": false,
      "stateMutability": "view",
      "type": "function"
    },
    {
      "constant": false,
      "inputs": [],
      "name": "fundContract",
      "outputs": [
        {
          "internalType": "uint256",
          "name": "",
          "type": "uint256"
        }
      ],
      "payable": true,
      "stateMutability": "payable",
      "type": "function"
    }
  ],
  "bytecode": "0x60806040523480156200001157600080fd5b50336000806101000a81548173ffffffffffffffffffffffffffffffffffffffff021916908373ffffffffffffffffffffffffffffffffffffffff16021790555062000067603060f81b6200006d60201b60201c565b62000a91565b600073ffffffffffffffffffffffffffffffffffffffff16600260009054906101000a900473ffffffffffffffffffffffffffffffffffffffff1673ffffffffffffffffffffffffffffffffffffffff161480620000fd57506000620000fb600260009054906101000a900473ffffffffffffffffffffffffffffffffffffffff16620003d360201b60201c565b145b156200011757620001156000620003de60201b60201c565b505b600260009054906101000a900473ffffffffffffffffffffffffffffffffffffffff1673ffffffffffffffffffffffffffffffffffffffff166338cc48316040518163ffffffff1660e01b8152600401602060405180830381600087803b1580156200018257600080fd5b505af115801562000197573d6000803e3d6000fd5b505050506040513d6020811015620001ae57600080fd5b810190808051906020019092919050505073ffffffffffffffffffffffffffffffffffffffff16600160009054906101000a900473ffffffffffffffffffffffffffffffffffffffff1673ffffffffffffffffffffffffffffffffffffffff1614620002fd57600260009054906101000a900473ffffffffffffffffffffffffffffffffffffffff1673ffffffffffffffffffffffffffffffffffffffff166338cc48316040518163ffffffff1660e01b8152600401602060405180830381600087803b1580156200027f57600080fd5b505af115801562000294573d6000803e3d6000fd5b505050506040513d6020811015620002ab57600080fd5b8101908080519060200190929190505050600160006101000a81548173ffffffffffffffffffffffffffffffffffffffff021916908373ffffffffffffffffffffffffffffffffffffffff1602179055505b600160009054906101000a900473ffffffffffffffffffffffffffffffffffffffff1673ffffffffffffffffffffffffffffffffffffffff1663688dcfd7826040518263ffffffff1660e01b815260040180827effffffffffffffffffffffffffffffffffffffffffffffffffffffffffffff19167effffffffffffffffffffffffffffffffffffffffffffffffffffffffffffff19168152602001915050600060405180830381600087803b158015620003b757600080fd5b505af1158015620003cc573d6000803e3d6000fd5b5050505050565b6000813b9050919050565b6000620003f0620003f760201b60201c565b9050919050565b6000806200041f731d3b2638a7cc9f2cb3d298a3da7a90b67e5506ed620003d360201b60201c565b1115620004cb57731d3b2638a7cc9f2cb3d298a3da7a90b67e5506ed600260006101000a81548173ffffffffffffffffffffffffffffffffffffffff021916908373ffffffffffffffffffffffffffffffffffffffff160217905550620004c16040518060400160405280600b81526020017f6574685f6d61696e6e6574000000000000000000000000000000000000000000815250620009c660201b60201c565b60019050620009c3565b6000620004f273c03a2615d5efaf5f49f60b7bb6583eaec212fdf1620003d360201b60201c565b11156200059e5773c03a2615d5efaf5f49f60b7bb6583eaec212fdf1600260006101000a81548173ffffffffffffffffffffffffffffffffffffffff021916908373ffffffffffffffffffffffffffffffffffffffff160217905550620005946040518060400160405280600c81526020017f6574685f726f707374656e330000000000000000000000000000000000000000815250620009c660201b60201c565b60019050620009c3565b6000620005c573b7a07bcf2ba2f2703b24c0691b5278999c59ac7e620003d360201b60201c565b1115620006715773b7a07bcf2ba2f2703b24c0691b5278999c59ac7e600260006101000a81548173ffffffffffffffffffffffffffffffffffffffff021916908373ffffffffffffffffffffffffffffffffffffffff160217905550620006676040518060400160405280600981526020017f6574685f6b6f76616e0000000000000000000000000000000000000000000000815250620009c660201b60201c565b60019050620009c3565b60006200069873146500cfd35b22e4a392fe0adc06de1a1368ed48620003d360201b60201c565b1115620007445773146500cfd35b22e4a392fe0adc06de1a1368ed48600260006101000a81548173ffffffffffffffffffffffffffffffffffffffff021916908373ffffffffffffffffffffffffffffffffffffffff1602179055506200073a6040518060400160405280600b81526020017f6574685f72696e6b656279000000000000000000000000000000000000000000815250620009c660201b60201c565b60019050620009c3565b60006200076b73a2998efd205fb9d4b4963afb70778d6354ad3a41620003d360201b60201c565b1115620008175773a2998efd205fb9d4b4963afb70778d6354ad3a41600260006101000a81548173ffffffffffffffffffffffffffffffffffffffff021916908373ffffffffffffffffffffffffffffffffffffffff1602179055506200080d6040518060400160405280600a81526020017f6574685f676f65726c6900000000000000000000000000000000000000000000815250620009c660201b60201c565b60019050620009c3565b60006200083e736f485c8bf6fc43ea212e93bbf8ce046c7f1cb475620003d360201b60201c565b1115620008a457736f485c8bf6fc43ea212e93bbf8ce046c7f1cb475600260006101000a81548173ffffffffffffffffffffffffffffffffffffffff021916908373ffffffffffffffffffffffffffffffffffffffff16021790555060019050620009c3565b6000620008cb7320e12a1f859b3feae5fb2a0a32c18f5a65555bbf620003d360201b60201c565b111562000931577320e12a1f859b3feae5fb2a0a32c18f5a65555bbf600260006101000a81548173ffffffffffffffffffffffffffffffffffffffff021916908373ffffffffffffffffffffffffffffffffffffffff16021790555060019050620009c3565b6000620009587351efaf4c8b3c9afbd5ab9f4bbc82784ab6ef8faa620003d360201b60201c565b1115620009be577351efaf4c8b3c9afbd5ab9f4bbc82784ab6ef8faa600260006101000a81548173ffffffffffffffffffffffffffffffffffffffff021916908373ffffffffffffffffffffffffffffffffffffffff16021790555060019050620009c3565b600090505b90565b8060039080519060200190620009de929190620009e2565b5050565b828054600181600116156101000203166002900490600052602060002090601f016020900481019282601f1062000a2557805160ff191683800117855562000a56565b8280016001018555821562000a56579182015b8281111562000a5557825182559160200191906001019062000a38565b5b50905062000a65919062000a69565b5090565b62000a8e91905b8082111562000a8a57600081600090555060010162000a70565b5090565b90565b613fd88062000aa16000396000f3fe6080604052600436106100915760003560e01c8063bd097e2111610059578063bd097e21146103b4578063cde4efa9146103d2578063ce606ee0146103dc578063e437786d14610433578063f2fde38b1461049c57610091565b806327dc297e14610096578063303b2f4b1461016857806338bbfa50146101f55780636f9fb98a1461035e578063853828b614610389575b600080fd5b3480156100a257600080fd5b50610166600480360360408110156100b957600080fd5b8101908080359060200190929190803590602001906401000000008111156100e057600080fd5b8201836020820111156100f257600080fd5b8035906020019184600183028401116401000000008311171561011457600080fd5b91908080601f016020809104026020016040519081016040528093929190818152602001838380828437600081840152601f19601f8201169050808301925050505050505091929192905050506104ed565b005b34801561017457600080fd5b506101a16004803603602081101561018b57600080fd5b8101908080359060200190929190505050610530565b604051808473ffffffffffffffffffffffffffffffffffffffff1673ffffffffffffffffffffffffffffffffffffffff16815260200183815260200182151515158152602001935050505060405180910390f35b34801561020157600080fd5b5061035c6004803603606081101561021857600080fd5b81019080803590602001909291908035906020019064010000000081111561023f57600080fd5b82018360208201111561025157600080fd5b8035906020019184600183028401116401000000008311171561027357600080fd5b91908080601f016020809104026020016040519081016040528093929190818152602001838380828437600081840152601f19601f820116905080830192505050505050509192919290803590602001906401000000008111156102d657600080fd5b8201836020820111156102e857600080fd5b8035906020019184600183028401116401000000008311171561030a57600080fd5b91908080601f016020809104026020016040519081016040528093929190818152602001838380828437600081840152601f19601f820116905080830192505050505050509192919290505050610587565b005b34801561036a57600080fd5b50610373610912565b6040518082815260200191505060405180910390f35b34801561039557600080fd5b5061039e610936565b6040518082815260200191505060405180910390f35b6103bc610a79565b6040518082815260200191505060405180910390f35b6103da610b9f565b005b3480156103e857600080fd5b506103f1610e61565b604051808273ffffffffffffffffffffffffffffffffffffffff1673ffffffffffffffffffffffffffffffffffffffff16815260200191505060405180910390f35b34801561043f57600080fd5b506104826004803603602081101561045657600080fd5b81019080803573ffffffffffffffffffffffffffffffffffffffff169060200190929190505050610e86565b604051808215151515815260200191505060405180910390f35b3480156104a857600080fd5b506104eb600480360360208110156104bf57600080fd5b81019080803573ffffffffffffffffffffffffffffffffffffffff169060200190929190505050610ea6565b005b61052c828260006040519080825280601f01601f1916602001820160405280156105265781602001600182028038833980820191505090505b50610587565b5050565b60076020528060005260406000206000915090508060000160009054906101000a900473ffffffffffffffffffffffffffffffffffffffff16908060010154908060020160009054906101000a900460ff16905083565b61058f610fc8565b73ffffffffffffffffffffffffffffffffffffffff163373ffffffffffffffffffffffffffffffffffffffff16146105c657600080fd5b60006105d38484846112e8565b60ff16146105e05761090d565b60006002836040516020018082805190602001908083835b6020831061061b57805182526020820191506020810190506020830392506105f8565b6001836020036101000a0380198251168184511680821785525050505050509050019150506040516020818303038152906040528051906020012060001c8161066057fe5b069050600081141561069857600015156007600086815260200190815260200160002060020160009054906101000a90505050610760565b600181141561075f57600115156007600086815260200190815260200160002060020160009054906101000a905050506007600085815260200190815260200160002060000160009054906101000a900473ffffffffffffffffffffffffffffffffffffffff1673ffffffffffffffffffffffffffffffffffffffff166108fc60026007600088815260200190815260200160002060010154029081150290604051600060405180830381858888f1935050505015801561075d573d6000803e3d6000fd5b505b5b6000600860006007600088815260200190815260200160002060000160009054906101000a900473ffffffffffffffffffffffffffffffffffffffff1673ffffffffffffffffffffffffffffffffffffffff1673ffffffffffffffffffffffffffffffffffffffff16815260200190815260200160002060006101000a81548160ff0219169083151502179055507fbc875a71d5f6713b0f6a033594a2f5e64c92f5d028465717d8ec11df609dc21b6007600086815260200190815260200160002060000160009054906101000a900473ffffffffffffffffffffffffffffffffffffffff1660076000878152602001908152602001600020600101546007600088815260200190815260200160002060020160009054906101000a900460ff16604051808473ffffffffffffffffffffffffffffffffffffffff1673ffffffffffffffffffffffffffffffffffffffff16815260200183815260200182151515158152602001935050505060405180910390a17fc13d60fe9dffdb6908d2d446cd18134373a51db0738ee04f296eeb9128121cbc816040518082815260200191505060405180910390a1505b505050565b6000803073ffffffffffffffffffffffffffffffffffffffff163190508091505090565b60008060009054906101000a900473ffffffffffffffffffffffffffffffffffffffff1673ffffffffffffffffffffffffffffffffffffffff163373ffffffffffffffffffffffffffffffffffffffff16146109dd576040517f08c379a000000000000000000000000000000000000000000000000000000000815260040180806020018281038252602e815260200180613eb7602e913960400191505060405180910390fd5b3373ffffffffffffffffffffffffffffffffffffffff166108fc3073ffffffffffffffffffffffffffffffffffffffff16319081150290604051600060405180830381858888f19350505050158015610a3a573d6000803e3d6000fd5b5060003073ffffffffffffffffffffffffffffffffffffffff163114610a5c57fe5b3073ffffffffffffffffffffffffffffffffffffffff1631905090565b60008060009054906101000a900473ffffffffffffffffffffffffffffffffffffffff1673ffffffffffffffffffffffffffffffffffffffff163373ffffffffffffffffffffffffffffffffffffffff1614610b20576040517f08c379a000000000000000000000000000000000000000000000000000000000815260040180806020018281038252602e815260200180613eb7602e913960400191505060405180910390fd5b6000341415610b2e57600080fd5b7fed7d0ddcc17abdb3935a0a23cd93e91b449dfeac7fd0def9f481ed5b37e18c4d3334604051808373ffffffffffffffffffffffffffffffffffffffff1673ffffffffffffffffffffffffffffffffffffffff1681526020018281526020019250505060405180910390a134905090565b662386f26fc10000600060023073ffffffffffffffffffffffffffffffffffffffff163181610bca57fe5b04905080341115610c26576040517f08c379a0000000000000000000000000000000000000000000000000000000008152600401808060200182810382526023815260200180613f176023913960400191505060405180910390fd5b81341015610c7f576040517f08c379a000000000000000000000000000000000000000000000000000000000815260040180806020018281038252602a815260200180613f7a602a913960400191505060405180910390fd5b60001515600860003373ffffffffffffffffffffffffffffffffffffffff1673ffffffffffffffffffffffffffffffffffffffff16815260200190815260200160002060009054906101000a900460ff16151514610cdc57600080fd5b6001600860003373ffffffffffffffffffffffffffffffffffffffff1673ffffffffffffffffffffffffffffffffffffffff16815260200190815260200160002060006101000a81548160ff0219169083151502179055506000809050600062030d409050610d4d82600183611418565b60068190555060405180606001604052803373ffffffffffffffffffffffffffffffffffffffff1681526020013481526020016000151581525060076000600654815260200190815260200160002060008201518160000160006101000a81548173ffffffffffffffffffffffffffffffffffffffff021916908373ffffffffffffffffffffffffffffffffffffffff1602179055506020820151816001015560408201518160020160006101000a81548160ff0219169083151502179055509050507fc4dc360d0a9c0677a3379ae0a3d81e887f761e65fdf3d7e00859d1bcd3c47389604051808060200182810382526032815260200180613ee56032913960400191505060405180910390a150505050565b6000809054906101000a900473ffffffffffffffffffffffffffffffffffffffff1681565b60086020528060005260406000206000915054906101000a900460ff1681565b6000809054906101000a900473ffffffffffffffffffffffffffffffffffffffff1673ffffffffffffffffffffffffffffffffffffffff163373ffffffffffffffffffffffffffffffffffffffff1614610f4b576040517f08c379a000000000000000000000000000000000000000000000000000000000815260040180806020018281038252602e815260200180613eb7602e913960400191505060405180910390fd5b600073ffffffffffffffffffffffffffffffffffffffff168173ffffffffffffffffffffffffffffffffffffffff161415610f8557600080fd5b806000806101000a81548173ffffffffffffffffffffffffffffffffffffffff021916908373ffffffffffffffffffffffffffffffffffffffff16021790555050565b60008073ffffffffffffffffffffffffffffffffffffffff16600260009054906101000a900473ffffffffffffffffffffffffffffffffffffffff1673ffffffffffffffffffffffffffffffffffffffff1614806110505750600061104e600260009054906101000a900473ffffffffffffffffffffffffffffffffffffffff166119b3565b145b156110615761105f60006119be565b505b600260009054906101000a900473ffffffffffffffffffffffffffffffffffffffff1673ffffffffffffffffffffffffffffffffffffffff166338cc48316040518163ffffffff1660e01b8152600401602060405180830381600087803b1580156110cb57600080fd5b505af11580156110df573d6000803e3d6000fd5b505050506040513d60208110156110f557600080fd5b810190808051906020019092919050505073ffffffffffffffffffffffffffffffffffffffff16600160009054906101000a900473ffffffffffffffffffffffffffffffffffffffff1673ffffffffffffffffffffffffffffffffffffffff161461124057600260009054906101000a900473ffffffffffffffffffffffffffffffffffffffff1673ffffffffffffffffffffffffffffffffffffffff166338cc48316040518163ffffffff1660e01b8152600401602060405180830381600087803b1580156111c457600080fd5b505af11580156111d8573d6000803e3d6000fd5b505050506040513d60208110156111ee57600080fd5b8101908080519060200190929190505050600160006101000a81548173ffffffffffffffffffffffffffffffffffffffff021916908373ffffffffffffffffffffffffffffffffffffffff1602179055505b600160009054906101000a900473ffffffffffffffffffffffffffffffffffffffff1673ffffffffffffffffffffffffffffffffffffffff1663c281d19e6040518163ffffffff1660e01b815260040160206040518083038186803b1580156112a857600080fd5b505afa1580156112bc573d6000803e3d6000fd5b505050506040513d60208110156112d257600080fd5b8101908080519060200190929190505050905090565b60007f4c000000000000000000000000000000000000000000000000000000000000008260008151811061131857fe5b602001015160f81c60f81b7effffffffffffffffffffffffffffffffffffffffffffffffffffffffffffff19161415806113ab57507f50000000000000000000000000000000000000000000000000000000000000008260018151811061137b57fe5b602001015160f81c60f81b7effffffffffffffffffffffffffffffffffffffffffffffffffffffffffffff191614155b806113d75750600160ff16826002815181106113c357fe5b602001015160f81c60f81b60f81c60ff1614155b156113e55760019050611411565b60006113fa8386866113f56119cf565b611a71565b90508061140b576002915050611411565b60009150505b9392505050565b6000808311801561142a575060208311155b61143357600080fd5b600a84029350606060016040519080825280601f01601f19166020018201604052801561146f5781602001600182028038833980820191505090505b5090508360f81b8160008151811061148357fe5b60200101907effffffffffffffffffffffffffffffffffffffffffffffffffffffffffffff1916908160001a905350606060206040519080825280601f01601f1916602001820160405280156114e85781602001600182028038833980820191505090505b509050606060206040519080825280601f01601f1916602001820160405280156115215781602001600182028038833980820191505090505b509050600061152e61211c565b905060208352424118600143034018602084015260208252806020830152606060206040519080825280601f01601f1916602001820160405280156115825781602001600182028038833980820191505090505b509050886020820152606060086040519080825280601f01601f1916602001820160405280156115c15781602001600182028038833980820191505090505b5090506115d4826018600884600061243c565b506115dd613dd0565b604051806080016040528087815260200188815260200186815260200184815250905060006116426040518060400160405280600681526020017f72616e646f6d0000000000000000000000000000000000000000000000000000815250838c61249b565b9050606060086040519080825280601f01601f19166020018201604052801561167a5781602001600182028038833980820191505090505b50905060208401517f0100000000000000000000000000000000000000000000000000000000000000810460278301537e01000000000000000000000000000000000000000000000000000000000000810460268301537d010000000000000000000000000000000000000000000000000000000000810460258301537c0100000000000000000000000000000000000000000000000000000000810460248301537b01000000000000000000000000000000000000000000000000000000810460238301537a0100000000000000000000000000000000000000000000000000008104602283015379010000000000000000000000000000000000000000000000000081046021830153780100000000000000000000000000000000000000000000000081046020830153506119a08282856001600481106117b957fe5b60200201516002876000600481106117cd57fe5b60200201516040518082805190602001908083835b6020831061180557805182526020820191506020810190506020830392506117e2565b6001836020036101000a038019825116818451168082178552505050505050905001915050602060405180830381855afa158015611847573d6000803e3d6000fd5b5050506040513d602081101561185c57600080fd5b81019080805190602001909291905050508760026004811061187a57fe5b60200201516040516020018085805190602001908083835b602083106118b55780518252602082019150602081019050602083039250611892565b6001836020036101000a03801982511681845116808217855250505050505090500184805190602001908083835b6020831061190657805182526020820191506020810190506020830392506118e3565b6001836020036101000a03801982511681845116808217855250505050505090500183815260200182805190602001908083835b6020831061195d578051825260208201915060208101905060208303925061193a565b6001836020036101000a0380198251168184511680821785525050505050509050019450505050506040516020818303038152906040528051906020012061280a565b8199505050505050505050509392505050565b6000813b9050919050565b60006119c8612826565b9050919050565b606060038054600181600116156101000203166002900480601f016020809104026020016040519081016040528092919081815260200182805460018160011615610100020316600290048015611a675780601f10611a3c57610100808354040283529160200191611a67565b820191906000526020600020905b815481529060010190602001808311611a4a57829003601f168201915b5050505050905090565b6000806020600287604581518110611a8557fe5b602001015160f81c60f81b60f81c60ff1601604401019050606060206040519080825280601f01601f191660200182016040528015611ad35781602001600182028038833980820191505090505b509050611ae58783602084600061243c565b50600284876040516020018083805190602001908083835b60208310611b205780518252602082019150602081019050602083039250611afd565b6001836020036101000a038019825116818451168082178552505050505050905001828152602001925050506040516020818303038152906040526040518082805190602001908083835b60208310611b8e5780518252602082019150602081019050602083039250611b6b565b6001836020036101000a038019825116818451168082178552505050505050905001915050602060405180830381855afa158015611bd0573d6000803e3d6000fd5b5050506040513d6020811015611be557600080fd5b81019080805190602001909291905050506040516020018082815260200191505060405160208183030381529060405280519060200120818051906020012014611c3457600092505050612114565b60606002886001604986010181518110611c4a57fe5b602001015160f81c60f81b60f81c60ff16016040519080825280601f01601f191660200182016040528015611c8e5781602001600182028038833980820191505090505b509050611ca38860498501835184600061243c565b50611d6e6002826040518082805190602001908083835b60208310611cdd5780518252602082019150602081019050602083039250611cba565b6001836020036101000a038019825116818451168082178552505050505050905001915050602060405180830381855afa158015611d1f573d6000803e3d6000fd5b5050506040513d6020811015611d3457600080fd5b8101908080519060200190929190505050878a6008602088010181518110611d5857fe5b602001015160f81c60f81b60f81c60ff16612d7d565b611d7e5760009350505050612114565b606060296040519080825280601f01601f191660200182016040528015611db45781602001600182028038833980820191505090505b509050611dc98960208601602984600061243c565b506060604080519080825280601f01601f191660200182016040528015611dff5781602001600182028038833980820191505090505b5090506000604184516029602089010101019050611e258b60408303604085600061243c565b5060006002836040518082805190602001908083835b60208310611e5e5780518252602082019150602081019050602083039250611e3b565b6001836020036101000a038019825116818451168082178552505050505050905001915050602060405180830381855afa158015611ea0573d6000803e3d6000fd5b5050506040513d6020811015611eb557600080fd5b8101908080519060200190929190505050905083816040516020018083805190602001908083835b60208310611f005780518252602082019150602081019050602083039250611edd565b6001836020036101000a0380198251168184511680821785525050505050509050018281526020019250505060405160208183030381529060405280519060200120600460008d8152602001908152602001600020541415611f7857600460008c815260200190815260200160002060009055611f88565b6000975050505050505050612114565b606060496040519080825280601f01601f191660200182016040528015611fbe5781602001600182028038833980820191505090505b509050611fd08d89604984600061243c565b506120796002826040518082805190602001908083835b6020831061200a5780518252602082019150602081019050602083039250611fe7565b6001836020036101000a038019825116818451168082178552505050505050905001915050602060405180830381855afa15801561204c573d6000803e3d6000fd5b5050506040513d602081101561206157600080fd5b81019080805190602001909291905050508786612e2d565b61208e57600098505050505050505050612114565b6005600083815260200190815260200160002060009054906101000a900460ff166120e8576120bd8d84612feb565b6005600084815260200190815260200160002060006101000a81548160ff0219169083151502179055505b6005600083815260200190815260200160002060009054906101000a900460ff16985050505050505050505b949350505050565b60008073ffffffffffffffffffffffffffffffffffffffff16600260009054906101000a900473ffffffffffffffffffffffffffffffffffffffff1673ffffffffffffffffffffffffffffffffffffffff1614806121a4575060006121a2600260009054906101000a900473ffffffffffffffffffffffffffffffffffffffff166119b3565b145b156121b5576121b360006119be565b505b600260009054906101000a900473ffffffffffffffffffffffffffffffffffffffff1673ffffffffffffffffffffffffffffffffffffffff166338cc48316040518163ffffffff1660e01b8152600401602060405180830381600087803b15801561221f57600080fd5b505af1158015612233573d6000803e3d6000fd5b505050506040513d602081101561224957600080fd5b810190808051906020019092919050505073ffffffffffffffffffffffffffffffffffffffff16600160009054906101000a900473ffffffffffffffffffffffffffffffffffffffff1673ffffffffffffffffffffffffffffffffffffffff161461239457600260009054906101000a900473ffffffffffffffffffffffffffffffffffffffff1673ffffffffffffffffffffffffffffffffffffffff166338cc48316040518163ffffffff1660e01b8152600401602060405180830381600087803b15801561231857600080fd5b505af115801561232c573d6000803e3d6000fd5b505050506040513d602081101561234257600080fd5b8101908080519060200190929190505050600160006101000a81548173ffffffffffffffffffffffffffffffffffffffff021916908373ffffffffffffffffffffffffffffffffffffffff1602179055505b600160009054906101000a900473ffffffffffffffffffffffffffffffffffffffff1673ffffffffffffffffffffffffffffffffffffffff1663abaa5f3e6040518163ffffffff1660e01b815260040160206040518083038186803b1580156123fc57600080fd5b505afa158015612410573d6000803e3d6000fd5b505050506040513d602081101561242657600080fd5b8101908080519060200190929190505050905090565b606060008285019050808451101561245357600080fd5b600086602001905060008460200190505b86886020010182101561248c5781890151808288015250602082019150602081019050612464565b85935050505095945050505050565b60008073ffffffffffffffffffffffffffffffffffffffff16600260009054906101000a900473ffffffffffffffffffffffffffffffffffffffff1673ffffffffffffffffffffffffffffffffffffffff16148061252357506000612521600260009054906101000a900473ffffffffffffffffffffffffffffffffffffffff166119b3565b145b156125345761253260006119be565b505b600260009054906101000a900473ffffffffffffffffffffffffffffffffffffffff1673ffffffffffffffffffffffffffffffffffffffff166338cc48316040518163ffffffff1660e01b8152600401602060405180830381600087803b15801561259e57600080fd5b505af11580156125b2573d6000803e3d6000fd5b505050506040513d60208110156125c857600080fd5b810190808051906020019092919050505073ffffffffffffffffffffffffffffffffffffffff16600160009054906101000a900473ffffffffffffffffffffffffffffffffffffffff1673ffffffffffffffffffffffffffffffffffffffff161461271357600260009054906101000a900473ffffffffffffffffffffffffffffffffffffffff1673ffffffffffffffffffffffffffffffffffffffff166338cc48316040518163ffffffff1660e01b8152600401602060405180830381600087803b15801561269757600080fd5b505af11580156126ab573d6000803e3d6000fd5b505050506040513d60208110156126c157600080fd5b8101908080519060200190929190505050600160006101000a81548173ffffffffffffffffffffffffffffffffffffffff021916908373ffffffffffffffffffffffffffffffffffffffff1602179055505b6060600460405190808252806020026020018201604052801561274a57816020015b60608152602001906001900390816127355790505b5090508360006004811061275a57fe5b60200201518160008151811061276c57fe5b60200260200101819052508360016004811061278457fe5b60200201518160018151811061279657fe5b6020026020010181905250836002600481106127ae57fe5b6020020151816002815181106127c057fe5b6020026020010181905250836003600481106127d857fe5b6020020151816003815181106127ea57fe5b6020026020010181905250612800858285613403565b9150509392505050565b8060046000848152602001908152602001600020819055505050565b600080612846731d3b2638a7cc9f2cb3d298a3da7a90b67e5506ed6119b3565b11156128e857731d3b2638a7cc9f2cb3d298a3da7a90b67e5506ed600260006101000a81548173ffffffffffffffffffffffffffffffffffffffff021916908373ffffffffffffffffffffffffffffffffffffffff1602179055506128df6040518060400160405280600b81526020017f6574685f6d61696e6e6574000000000000000000000000000000000000000000815250613969565b60019050612d7a565b600061290773c03a2615d5efaf5f49f60b7bb6583eaec212fdf16119b3565b11156129a95773c03a2615d5efaf5f49f60b7bb6583eaec212fdf1600260006101000a81548173ffffffffffffffffffffffffffffffffffffffff021916908373ffffffffffffffffffffffffffffffffffffffff1602179055506129a06040518060400160405280600c81526020017f6574685f726f707374656e330000000000000000000000000000000000000000815250613969565b60019050612d7a565b60006129c873b7a07bcf2ba2f2703b24c0691b5278999c59ac7e6119b3565b1115612a6a5773b7a07bcf2ba2f2703b24c0691b5278999c59ac7e600260006101000a81548173ffffffffffffffffffffffffffffffffffffffff021916908373ffffffffffffffffffffffffffffffffffffffff160217905550612a616040518060400160405280600981526020017f6574685f6b6f76616e0000000000000000000000000000000000000000000000815250613969565b60019050612d7a565b6000612a8973146500cfd35b22e4a392fe0adc06de1a1368ed486119b3565b1115612b2b5773146500cfd35b22e4a392fe0adc06de1a1368ed48600260006101000a81548173ffffffffffffffffffffffffffffffffffffffff021916908373ffffffffffffffffffffffffffffffffffffffff160217905550612b226040518060400160405280600b81526020017f6574685f72696e6b656279000000000000000000000000000000000000000000815250613969565b60019050612d7a565b6000612b4a73a2998efd205fb9d4b4963afb70778d6354ad3a416119b3565b1115612bec5773a2998efd205fb9d4b4963afb70778d6354ad3a41600260006101000a81548173ffffffffffffffffffffffffffffffffffffffff021916908373ffffffffffffffffffffffffffffffffffffffff160217905550612be36040518060400160405280600a81526020017f6574685f676f65726c6900000000000000000000000000000000000000000000815250613969565b60019050612d7a565b6000612c0b736f485c8bf6fc43ea212e93bbf8ce046c7f1cb4756119b3565b1115612c6f57736f485c8bf6fc43ea212e93bbf8ce046c7f1cb475600260006101000a81548173ffffffffffffffffffffffffffffffffffffffff021916908373ffffffffffffffffffffffffffffffffffffffff16021790555060019050612d7a565b6000612c8e7320e12a1f859b3feae5fb2a0a32c18f5a65555bbf6119b3565b1115612cf2577320e12a1f859b3feae5fb2a0a32c18f5a65555bbf600260006101000a81548173ffffffffffffffffffffffffffffffffffffffff021916908373ffffffffffffffffffffffffffffffffffffffff16021790555060019050612d7a565b6000612d117351efaf4c8b3c9afbd5ab9f4bbc82784ab6ef8faa6119b3565b1115612d75577351efaf4c8b3c9afbd5ab9f4bbc82784ab6ef8faa600260006101000a81548173ffffffffffffffffffffffffffffffffffffffff021916908373ffffffffffffffffffffffffffffffffffffffff16021790555060019050612d7a565b600090505b90565b6000806001905082845114612d9157600080fd5b60008090505b83811015612e2157848181518110612dab57fe5b602001015160f81c60f81b7effffffffffffffffffffffffffffffffffffffffffffffffffffffffffffff1916868260208110612de457fe5b1a60f81b7effffffffffffffffffffffffffffffffffffffffffffffffffffffffffffff191614612e1457600091505b8080600101915050612d97565b50809150509392505050565b6000806000806000606060206040519080825280601f01601f191660200182016040528015612e6b5781602001600182028038833980820191505090505b5090506000602089600381518110612e7f57fe5b602001015160f81c60f81b60f81c60ff16036004019050612ea58982602085600061243c565b9150606060206040519080825280601f01601f191660200182016040528015612edd5781602001600182028038833980820191505090505b509050602282019150612f198a60208c6001860381518110612efb57fe5b602001015160f81c60f81b60f81c60ff16038401602084600061243c565b90506020830151945060208101519350612f368b601b8787613983565b80975081985050508573ffffffffffffffffffffffffffffffffffffffff16898051906020012060001c73ffffffffffffffffffffffffffffffffffffffff161415612f8c576001975050505050505050612fe4565b612f998b601c8787613983565b80975081985050508573ffffffffffffffffffffffffffffffffffffffff16898051906020012060001c73ffffffffffffffffffffffffffffffffffffffff16149750505050505050505b9392505050565b6000806060600285600186018151811061300157fe5b602001015160f81c60f81b60f81c60ff16016040519080825280601f01601f1916602001820160405280156130455781602001600182028038833980820191505090505b5090506130578585835184600061243c565b506060604080519080825280601f01601f19166020018201604052801561308d5781602001600182028038833980820191505090505b5090506130a0866004604084600061243c565b50606060626040519080825280601f01601f1916602001820160405280156130d75781602001600182028038833980820191505090505b509050600160f81b816000815181106130ec57fe5b60200101907effffffffffffffffffffffffffffffffffffffffffffffffffffffffffffff1916908160001a90535061312d8760418803604184600161243c565b5060606040518060400160405280602081526020017ffd94fa71bc0ba10d39d464d0d8f465efeef0a2764e3887fcc9df41ded20f505c8152509050613178816000602085604261243c565b506132216002836040518082805190602001908083835b602083106131b2578051825260208201915060208101905060208303925061318f565b6001836020036101000a038019825116818451168082178552505050505050905001915050602060405180830381855afa1580156131f4573d6000803e3d6000fd5b5050506040513d602081101561320957600080fd5b81019080805190602001909291905050508585612e2d565b945084613236576000955050505050506133fd565b6060604051806060016040528060408152602001613f3a604091399050606060426040519080825280601f01601f1916602001820160405280156132895781602001600182028038833980820191505090505b50905060fe60f81b8160008151811061329e57fe5b60200101907effffffffffffffffffffffffffffffffffffffffffffffffffffffffffffff1916908160001a9053506132dd8a6003604184600161243c565b50606060028b6045815181106132ef57fe5b602001015160f81c60f81b60f81c60ff16016040519080825280601f01601f1916602001820160405280156133335781602001600182028038833980820191505090505b5090506133468b6044835184600061243c565b506133ef6002836040518082805190602001908083835b60208310613380578051825260208201915060208101905060208303925061335d565b6001836020036101000a038019825116818451168082178552505050505050905001915050602060405180830381855afa1580156133c2573d6000803e3d6000fd5b5050506040513d60208110156133d757600080fd5b81019080805190602001909291905050508285612e2d565b975087985050505050505050505b92915050565b60008073ffffffffffffffffffffffffffffffffffffffff16600260009054906101000a900473ffffffffffffffffffffffffffffffffffffffff1673ffffffffffffffffffffffffffffffffffffffff16148061348b57506000613489600260009054906101000a900473ffffffffffffffffffffffffffffffffffffffff166119b3565b145b1561349c5761349a60006119be565b505b600260009054906101000a900473ffffffffffffffffffffffffffffffffffffffff1673ffffffffffffffffffffffffffffffffffffffff166338cc48316040518163ffffffff1660e01b8152600401602060405180830381600087803b15801561350657600080fd5b505af115801561351a573d6000803e3d6000fd5b505050506040513d602081101561353057600080fd5b810190808051906020019092919050505073ffffffffffffffffffffffffffffffffffffffff16600160009054906101000a900473ffffffffffffffffffffffffffffffffffffffff1673ffffffffffffffffffffffffffffffffffffffff161461367b57600260009054906101000a900473ffffffffffffffffffffffffffffffffffffffff1673ffffffffffffffffffffffffffffffffffffffff166338cc48316040518163ffffffff1660e01b8152600401602060405180830381600087803b1580156135ff57600080fd5b505af1158015613613573d6000803e3d6000fd5b505050506040513d602081101561362957600080fd5b8101908080519060200190929190505050600160006101000a81548173ffffffffffffffffffffffffffffffffffffffff021916908373ffffffffffffffffffffffffffffffffffffffff1602179055505b6000600160009054906101000a900473ffffffffffffffffffffffffffffffffffffffff1673ffffffffffffffffffffffffffffffffffffffff16632ef3accc86856040518363ffffffff1660e01b81526004018080602001838152602001828103825284818151815260200191508051906020019080838360005b838110156137125780820151818401526020810190506136f7565b50505050905090810190601f16801561373f5780820380516001836020036101000a031916815260200191505b509350505050602060405180830381600087803b15801561375f57600080fd5b505af1158015613773573d6000803e3d6000fd5b505050506040513d602081101561378957600080fd5b81019080805190602001909291905050509050823a02670de0b6b3a7640000018111156137bc576000801b915050613962565b60606137c7856139c7565b9050600160009054906101000a900473ffffffffffffffffffffffffffffffffffffffff1673ffffffffffffffffffffffffffffffffffffffff1663c55c1cb68360008985896040518663ffffffff1660e01b8152600401808581526020018060200180602001848152602001838103835286818151815260200191508051906020019080838360005b8381101561386c578082015181840152602081019050613851565b50505050905090810190601f1680156138995780820380516001836020036101000a031916815260200191505b50838103825285818151815260200191508051906020019080838360005b838110156138d25780820151818401526020810190506138b7565b50505050905090810190601f1680156138ff5780820380516001836020036101000a031916815260200191505b5096505050505050506020604051808303818588803b15801561392157600080fd5b505af1158015613935573d6000803e3d6000fd5b50505050506040513d602081101561394c57600080fd5b8101908080519060200190929190505050925050505b9392505050565b806003908051906020019061397f929190613df7565b5050565b60008060008060405188815287602082015286604082015285606082015260208160808360006001610bb8f192508051915050818193509350505094509492505050565b60606139d1613a47565b6139d9613e77565b6139e581610400613a53565b6139ee81613a9d565b60008090505b8351811015613a3057613a23848281518110613a0c57fe5b602002602001015183613aab90919063ffffffff16565b80806001019150506139f4565b50613a3a81613ad0565b8060000151915050919050565b60405180590338823950565b6000819050600060208281613a6457fe5b0614613a7d5760208181613a7457fe5b06602003810190505b808360200181815250506040518084526000815281810160405250505050565b613aa8816004613ade565b50565b613ab88260028351613aff565b613acb8183613c3f90919063ffffffff16565b505050565b613adb816007613ade565b50565b613afb601f60058360ff16901b1783613cea90919063ffffffff16565b5050565b60178111613b2b57613b268160058460ff16901b60ff161784613cea90919063ffffffff16565b613c3a565b60ff8111613b6c57613b50601860058460ff16901b1784613cea90919063ffffffff16565b613b6681600185613d2a9092919063ffffffff16565b50613c39565b61ffff8111613bae57613b92601960058460ff16901b1784613cea90919063ffffffff16565b613ba881600285613d2a9092919063ffffffff16565b50613c38565b63ffffffff8111613bf257613bd6601a60058460ff16901b1784613cea90919063ffffffff16565b613bec81600485613d2a9092919063ffffffff16565b50613c37565b67ffffffffffffffff8111613c3657613c1e601b60058460ff16901b1784613cea90919063ffffffff16565b613c3481600885613d2a9092919063ffffffff16565b505b5b5b5b5b505050565b613c47613e77565b82602001518360000151518351011115613c7757613c76836002613c7086602001518651613d91565b02613dad565b5b60008060008451905085518051602081830101945086518101825260208701935050505b60208110613cbe5781518352602083019250602082019150602081039050613c9b565b60006001826020036101000a039050801983511681855116818117865250508694505050505092915050565b81602001516001836000015151011115613d1057613d0f826002846020015102613dad565b5b815180516020818301018381536001820183525050505050565b613d32613e77565b836020015184600001515183011115613d6057613d5f846002613d59876020015186613d91565b02613dad565b5b60006001836101000a0390508451805184818301018684198251161781528582018352505050849150509392505050565b600081831115613da357829050613da7565b8190505b92915050565b606082600001519050613dc08383613a53565b613dca8382613c3f565b50505050565b60405180608001604052806004905b6060815260200190600190039081613ddf5790505090565b828054600181600116156101000203166002900490600052602060002090601f016020900481019282601f10613e3857805160ff1916838001178555613e66565b82800160010185558215613e66579182015b82811115613e65578251825591602001919060010190613e4a565b5b509050613e739190613e91565b5090565b604051806040016040528060608152602001600081525090565b613eb391905b80821115613eaf576000816000905550600101613e97565b5090565b9056fe596f7520617265206e6f7420656e7469746c656420746f206578656375746520746869732066756e6374696f6e2e50726f7661626c65207175657279207761732073656e742c207374616e64696e6720627920666f7220616e737765722e2e2e4a61636b706f7420697320746865206d61782062657420796f752063616e206d616b657fb956469c5c9b89840d55b43537e66a98dd4811ea0a27224272c2e5622911e8537a2f8e86a46baec82864e98dd01e9ccc2f8bc5dfc9cbe5a91a290498dd96e4546865206d696e696d756d2062657420796f752063616e206d616b6520697320302e3031204574686572a265627a7a72315820d8748b8b99027e13f5d5d7a8ce242bc46af02565f6f5eba250d97064f1d20b8264736f6c634300050c0032",
  "source": "import\"./Ownable.sol\";\r\nimport\"./provableAPI.sol\";\r\n\r\npragma solidity 0.5.12;\r\n\r\ncontract FlipContract is Ownable, usingProvable {\r\n\r\n    uint256 constant NUM_RANDOM_BYTES_REQUESTED = 1;    //Value of 1-32: But why unit256? Isn't uint8 enought? In ProvableAPI.sol in line 1077 there is even a conversion to uint8 >> byte(uint8(_nbytes));\r\n    bytes32 queryId;                                    //Is it realy necessary to have it as state variable?\r\n\r\n    struct Bet {                                        //Struct Variable for betting process\r\n        address payable player;                         //msg.sender is the player\r\n        uint value;                                     //betting value (double or loose)\r\n        bool result;                                    //win or loose result\r\n    }\r\n//* Events */\r\n    event betTaken(address player, uint value, bool result);\r\n    event funded(address contractOwner, uint funding);\r\n    event LogNewProvableQuery(string description);\r\n    event generatedRandomNumber(uint256 randomNumber);\r\n\r\n    mapping (bytes32 => Bet) public betting;            //Query Id coupling to Bet\r\n    mapping (address => bool) public waiting;           //Msg.sender waiting system (Player have to wait until previous bet is taken and finished)\r\n\r\n    constructor() public {\r\n        provable_setProof(proofType_Ledger);\r\n        //flip();\r\n    }\r\n\r\n    modifier costs(uint cost){\r\n        uint jackpot = address(this).balance / 2;\r\n        require(msg.value <= jackpot, \"Jackpot is the max bet you can make\");   //This statement is not working yet\r\n        require(msg.value >= cost, \"The minimum bet you can make is 0.01 Ether\");\r\n        _;\r\n    }\r\n    // Oracle Callback Function of the flip() function\r\n    function __callback(bytes32 _queryId, string memory _result, bytes memory _proof) public {\r\n        require(msg.sender == provable_cbAddress());\r\n\r\n        if (provable_randomDS_proofVerify__returnCode(_queryId, _result, _proof) != 0) {\r\n            /*\r\n             * @notice  The proof verification has failed! Handle this case\r\n             *          however you see fit. --> Not sure what to do here.\r\n            */\r\n        }\r\n        else {\r\n\r\n        uint256 randomNumber = uint256(keccak256(abi.encodePacked(_result))) % 2;\r\n\r\n        if(randomNumber == 0){\r\n            betting[_queryId].result == false;\r\n        }\r\n        else if(randomNumber == 1){\r\n            betting[_queryId].result == true;\r\n            betting[_queryId].player.transfer((betting[_queryId].value)*2);\r\n        }\r\n\r\n        waiting[betting[_queryId].player] = false;\r\n\r\n        emit betTaken(betting[_queryId].player, betting[_queryId].value, betting[_queryId].result);\r\n        emit generatedRandomNumber(randomNumber);\r\n       }\r\n    }\r\n    // Function to simulate coin flip 50/50 randomnes\r\n    function flip() public payable costs(0.01 ether){\r\n        require(waiting[msg.sender] == false);\r\n        waiting[msg.sender] = true;\r\n\r\n        uint256 QUERY_EXECUTION_DELAY = 0;      //config: execution delay (0 for no delay)\r\n        uint256 GAS_FOR_CALLBACK = 200000;      //config: gas fee for calling __callback function (200000 is standard)\r\n        queryId = provable_newRandomDSQuery(QUERY_EXECUTION_DELAY, NUM_RANDOM_BYTES_REQUESTED, GAS_FOR_CALLBACK);     //function to query a random number, it will call the __callback function\r\n\r\n        betting[queryId] = Bet({player: msg.sender, value: msg.value, result: false});      //Initialize Bet with values of player\r\n\r\n        emit LogNewProvableQuery(\"Provable query was sent, standing by for answer...\");\r\n    }\r\n    // Function to Withdraw Funds\r\n    function withdrawAll() public onlyContractOwner returns(uint){\r\n        //Should require that no bet is prozess! Should wait!\r\n        msg.sender.transfer(address(this).balance);\r\n        assert(address(this).balance == 0);\r\n        return address(this).balance;\r\n    }\r\n    // Function to get the Balance of the Contract\r\n    function getContractBalance() public view returns (uint) {\r\n        uint contractBalance;\r\n        return contractBalance = address(this).balance;\r\n    }\r\n    // Fund the Contract\r\n    function fundContract() public payable onlyContractOwner returns(uint){\r\n        require(msg.value != 0);\r\n        //ContractBalance += msg.value;\r\n        emit funded(msg.sender, msg.value);\r\n        //assert(ContractBalance == address(this).balance);\r\n        return msg.value;\r\n    }\r\n\r\n}",
  "sourcePath": "C:/Users/pault/OneDrive/GitHub/BetFlipDApp/contracts/FlipContract.sol",
  "compiler": {
    "name": "solc",
    "version": "0.5.12+commit.7709ece9.Emscripten.clang"
  },
  "schemaVersion": "3.0.16",
  "updatedAt": "2020-01-06T21:53:00.781Z",
  "devdoc": {
    "methods": {
      "__callback(bytes32,string)": {
        "details": "The following `__callback` functions are just placeholders ideally     meant to be defined in child contract when proofs are used.     The function bodies simply silence compiler warnings."
      }
    }
  },
  "userdoc": {
    "methods": {}
  }
}