{
  "contractName": "FlipContract",
  "abi": [
    {
      "anonymous": false,
      "inputs": [
        {
          "indexed": false,
          "internalType": "address",
          "name": "user",
          "type": "address"
        },
        {
          "indexed": false,
          "internalType": "uint256",
          "name": "bet",
          "type": "uint256"
        },
        {
          "indexed": false,
          "internalType": "bool",
          "name": "",
          "type": "bool"
        }
      ],
      "name": "bet",
      "type": "event"
    },
    {
      "anonymous": false,
      "inputs": [
        {
          "indexed": false,
          "internalType": "address",
          "name": "owner",
          "type": "address"
        },
        {
          "indexed": false,
          "internalType": "uint256",
          "name": "funding",
          "type": "uint256"
        }
      ],
      "name": "funded",
      "type": "event"
    },
    {
      "constant": true,
      "inputs": [],
      "name": "ContractBalance",
      "outputs": [
        {
          "internalType": "uint256",
          "name": "",
          "type": "uint256"
        }
      ],
      "payable": false,
      "stateMutability": "view",
      "type": "function"
    },
    {
      "constant": true,
      "inputs": [],
      "name": "contractOwner",
      "outputs": [
        {
          "internalType": "address",
          "name": "",
          "type": "address"
        }
      ],
      "payable": false,
      "stateMutability": "view",
      "type": "function"
    },
    {
      "constant": false,
      "inputs": [
        {
          "internalType": "address",
          "name": "newOwner",
          "type": "address"
        }
      ],
      "name": "transferOwnership",
      "outputs": [],
      "payable": false,
      "stateMutability": "nonpayable",
      "type": "function"
    },
    {
      "constant": false,
      "inputs": [],
      "name": "flip",
      "outputs": [],
      "payable": true,
      "stateMutability": "payable",
      "type": "function"
    },
    {
      "constant": false,
      "inputs": [],
      "name": "withdrawAll",
      "outputs": [
        {
          "internalType": "uint256",
          "name": "",
          "type": "uint256"
        }
      ],
      "payable": false,
      "stateMutability": "nonpayable",
      "type": "function"
    },
    {
      "constant": true,
      "inputs": [],
      "name": "getBalance",
      "outputs": [
        {
          "internalType": "address",
          "name": "",
          "type": "address"
        },
        {
          "internalType": "uint256",
          "name": "",
          "type": "uint256"
        },
        {
          "internalType": "uint256",
          "name": "",
          "type": "uint256"
        }
      ],
      "payable": false,
      "stateMutability": "view",
      "type": "function"
    },
    {
      "constant": false,
      "inputs": [],
      "name": "fundContract",
      "outputs": [
        {
          "internalType": "uint256",
          "name": "",
          "type": "uint256"
        }
      ],
      "payable": true,
      "stateMutability": "payable",
      "type": "function"
    }
  ],
  "bytecode": "0x6080604052336000806101000a81548173ffffffffffffffffffffffffffffffffffffffff021916908373ffffffffffffffffffffffffffffffffffffffff1602179055506108a6806100536000396000f3fe6080604052600436106100705760003560e01c8063bd097e211161004e578063bd097e2114610130578063cde4efa91461014e578063ce606ee014610158578063f2fde38b146101af57610070565b806312065fe0146100755780633b668059146100da578063853828b614610105575b600080fd5b34801561008157600080fd5b5061008a610200565b604051808473ffffffffffffffffffffffffffffffffffffffff1673ffffffffffffffffffffffffffffffffffffffff168152602001838152602001828152602001935050505060405180910390f35b3480156100e657600080fd5b506100ef61022c565b6040518082815260200191505060405180910390f35b34801561011157600080fd5b5061011a610232565b6040518082815260200191505060405180910390f35b610138610358565b6040518082815260200191505060405180910390f35b6101566104b0565b005b34801561016457600080fd5b5061016d6106db565b604051808273ffffffffffffffffffffffffffffffffffffffff1673ffffffffffffffffffffffffffffffffffffffff16815260200191505060405180910390f35b3480156101bb57600080fd5b506101fe600480360360208110156101d257600080fd5b81019080803573ffffffffffffffffffffffffffffffffffffffff169060200190929190505050610700565b005b6000806000303073ffffffffffffffffffffffffffffffffffffffff1631600154925092509250909192565b60015481565b60008060009054906101000a900473ffffffffffffffffffffffffffffffffffffffff1673ffffffffffffffffffffffffffffffffffffffff163373ffffffffffffffffffffffffffffffffffffffff16146102d9576040517f08c379a000000000000000000000000000000000000000000000000000000000815260040180806020018281038252602e815260200180610844602e913960400191505060405180910390fd5b6000600154905060006001819055503373ffffffffffffffffffffffffffffffffffffffff166108fc829081150290604051600060405180830381858888f1935050505015801561032e573d6000803e3d6000fd5b503073ffffffffffffffffffffffffffffffffffffffff16316001541461035157fe5b8091505090565b60008060009054906101000a900473ffffffffffffffffffffffffffffffffffffffff1673ffffffffffffffffffffffffffffffffffffffff163373ffffffffffffffffffffffffffffffffffffffff16146103ff576040517f08c379a000000000000000000000000000000000000000000000000000000000815260040180806020018281038252602e815260200180610844602e913960400191505060405180910390fd5b600034141561040d57600080fd5b346001600082825401925050819055507fed7d0ddcc17abdb3935a0a23cd93e91b449dfeac7fd0def9f481ed5b37e18c4d3334604051808373ffffffffffffffffffffffffffffffffffffffff1673ffffffffffffffffffffffffffffffffffffffff1681526020018281526020019250505060405180910390a13073ffffffffffffffffffffffffffffffffffffffff1631600154146104aa57fe5b34905090565b662386f26fc100008034101561052e576040517f08c379a000000000000000000000000000000000000000000000000000000000815260040180806020018281038252601d8152602001807f546865206d696e696d756d2062657420697320302e303120457468657200000081525060200191505060405180910390fd5b343073ffffffffffffffffffffffffffffffffffffffff1631101561059e576040517f08c379a00000000000000000000000000000000000000000000000000000000081526004018080602001828103825260218152602001806108236021913960400191505060405180910390fd5b600080600242816105ab57fe5b0614156105cb57346001600082825401925050819055506000905061063e565b6001600242816105d757fe5b06141561063d57346001600082825403925050819055503373ffffffffffffffffffffffffffffffffffffffff166108fc600234029081150290604051600060405180830381858888f19350505050158015610637573d6000803e3d6000fd5b50600190505b5b3073ffffffffffffffffffffffffffffffffffffffff16316001541461066057fe5b7f20d932006281d267f137cd3921b707c2097e1f041b1291181cc3d0e86f449ebb333483604051808473ffffffffffffffffffffffffffffffffffffffff1673ffffffffffffffffffffffffffffffffffffffff16815260200183815260200182151515158152602001935050505060405180910390a15050565b6000809054906101000a900473ffffffffffffffffffffffffffffffffffffffff1681565b6000809054906101000a900473ffffffffffffffffffffffffffffffffffffffff1673ffffffffffffffffffffffffffffffffffffffff163373ffffffffffffffffffffffffffffffffffffffff16146107a5576040517f08c379a000000000000000000000000000000000000000000000000000000000815260040180806020018281038252602e815260200180610844602e913960400191505060405180910390fd5b600073ffffffffffffffffffffffffffffffffffffffff168173ffffffffffffffffffffffffffffffffffffffff1614156107df57600080fd5b806000806101000a81548173ffffffffffffffffffffffffffffffffffffffff021916908373ffffffffffffffffffffffffffffffffffffffff1602179055505056fe54686520636f6e7472616374206861736e277420656e6f756768742066756e6473596f7520617265206e6f7420656e7469746c656420746f206578656375746520746869732066756e6374696f6e2ea265627a7a723158206339436877fc15c4236d0bdff0560a1daa349e79c61a9592042cfb0d7b21751b64736f6c634300050c0032",
  "source": "import\"./Ownable.sol\";\r\n\r\npragma solidity 0.5.12;\r\n\r\ncontract FlipContract is Ownable {\r\n\r\n    uint public ContractBalance;\r\n\r\n    event bet(address user, uint bet, bool);\r\n    event funded(address owner, uint funding);\r\n\r\n\r\n    modifier costs(uint cost){\r\n        require(msg.value >= cost, \"The minimum bet is 0.01 Ether\");\r\n        _;\r\n    }\r\n    // Function to simulate coin flip 50/50 randomnes\r\n    function flip() public payable costs(0.01 ether) {\r\n        require(address(this).balance >= msg.value, \"The contract hasn't enought funds\");\r\n        bool success;\r\n        if(now % 2 == 0){\r\n            ContractBalance += msg.value;\r\n            success = false;\r\n        }\r\n        else if(now % 2 == 1){\r\n            ContractBalance -= msg.value;\r\n            msg.sender.transfer(msg.value * 2);\r\n            success = true;\r\n        }\r\n        assert(ContractBalance == address(this).balance);\r\n        emit bet(msg.sender, msg.value, success);\r\n    }\r\n    // Function to Withdraw Funds\r\n    function withdrawAll() public onlyContractOwner returns(uint){\r\n        uint toTransfer = ContractBalance;\r\n        ContractBalance = 0;\r\n        msg.sender.transfer(toTransfer);\r\n        assert(ContractBalance == address(this).balance);\r\n        return toTransfer;\r\n    }\r\n    // Function to get the Balance of the Contract\r\n    function getBalance() public view returns (address, uint, uint) {\r\n        return (address(this), address(this).balance, ContractBalance);\r\n    }\r\n    // Fund the Contract\r\n    function fundContract() public payable onlyContractOwner returns(uint){\r\n        require(msg.value != 0);\r\n        ContractBalance += msg.value;\r\n        emit funded(msg.sender, msg.value);\r\n        assert(ContractBalance == address(this).balance);\r\n        return msg.value;\r\n    }\r\n\r\n}",
  "sourcePath": "C:/Users/pault/OneDrive/GitHub/FilipsFlipDApp/contracts/FlipContract.sol",
  "compiler": {
    "name": "solc",
    "version": "0.5.12+commit.7709ece9.Emscripten.clang"
  },
  "schemaVersion": "3.0.16",
  "updatedAt": "2019-12-26T21:15:21.446Z",
  "devdoc": {
    "methods": {}
  },
  "userdoc": {
    "methods": {}
  }
}